{
  "contractName": "Aadhaar",
  "abi": [
    {
      "constant": true,
      "inputs": [
        {
          "internalType": "address",
          "name": "",
          "type": "address"
        }
      ],
      "name": "addressToAccount",
      "outputs": [
        {
          "internalType": "uint256",
          "name": "",
          "type": "uint256"
        }
      ],
      "payable": false,
      "stateMutability": "view",
      "type": "function"
    },
    {
      "constant": true,
      "inputs": [],
      "name": "getdigiIdByAddress",
      "outputs": [
        {
          "internalType": "uint256",
          "name": "",
          "type": "uint256"
        }
      ],
      "payable": false,
      "stateMutability": "view",
      "type": "function"
    },
    {
      "constant": true,
      "inputs": [],
      "name": "isUser",
      "outputs": [
        {
          "internalType": "bool",
          "name": "",
          "type": "bool"
        }
      ],
      "payable": false,
      "stateMutability": "view",
      "type": "function"
    },
    {
      "constant": false,
      "inputs": [
        {
          "internalType": "address",
          "name": "_address",
          "type": "address"
        },
        {
          "internalType": "string",
          "name": "_name",
          "type": "string"
        },
        {
          "internalType": "string",
          "name": "_gender",
          "type": "string"
        },
        {
          "internalType": "string",
          "name": "_dob",
          "type": "string"
        },
        {
          "internalType": "string",
          "name": "_Address",
          "type": "string"
        },
        {
          "internalType": "string",
          "name": "_phoneNumber",
          "type": "string"
        }
      ],
      "name": "registerUser",
      "outputs": [
        {
          "internalType": "uint256",
          "name": "",
          "type": "uint256"
        }
      ],
      "payable": false,
      "stateMutability": "nonpayable",
      "type": "function"
    },
    {
      "constant": true,
      "inputs": [],
      "name": "searchUserByaddress",
      "outputs": [
        {
          "components": [
            {
              "internalType": "string",
              "name": "name",
              "type": "string"
            },
            {
              "internalType": "string",
              "name": "gender",
              "type": "string"
            },
            {
              "internalType": "string",
              "name": "dob",
              "type": "string"
            },
            {
              "internalType": "string",
              "name": "Address",
              "type": "string"
            },
            {
              "internalType": "string",
              "name": "phoneNumber",
              "type": "string"
            }
          ],
          "internalType": "struct AuthUsers.User",
          "name": "",
          "type": "tuple"
        }
      ],
      "payable": false,
      "stateMutability": "view",
      "type": "function"
    },
    {
      "constant": true,
      "inputs": [
        {
          "internalType": "uint256",
          "name": "_digiId",
          "type": "uint256"
        }
      ],
      "name": "searchUserBydigiId",
      "outputs": [
        {
          "components": [
            {
              "internalType": "string",
              "name": "name",
              "type": "string"
            },
            {
              "internalType": "string",
              "name": "gender",
              "type": "string"
            },
            {
              "internalType": "string",
              "name": "dob",
              "type": "string"
            },
            {
              "internalType": "string",
              "name": "Address",
              "type": "string"
            },
            {
              "internalType": "string",
              "name": "phoneNumber",
              "type": "string"
            }
          ],
          "internalType": "struct AuthUsers.User",
          "name": "",
          "type": "tuple"
        }
      ],
      "payable": false,
      "stateMutability": "view",
      "type": "function"
    },
    {
      "constant": false,
      "inputs": [
        {
          "internalType": "uint256",
          "name": "digiId",
          "type": "uint256"
        },
        {
          "internalType": "string",
          "name": "name",
          "type": "string"
        },
        {
          "internalType": "string",
          "name": "addr",
          "type": "string"
        },
        {
          "internalType": "string",
          "name": "dob",
          "type": "string"
        },
        {
          "internalType": "uint8",
          "name": "gender",
          "type": "uint8"
        },
        {
          "internalType": "string",
          "name": "guardian",
          "type": "string"
        }
      ],
      "name": "setAadhaarDetails",
      "outputs": [
        {
          "internalType": "uint64",
          "name": "",
          "type": "uint64"
        }
      ],
      "payable": false,
      "stateMutability": "nonpayable",
      "type": "function"
    },
    {
      "constant": false,
      "inputs": [
        {
          "internalType": "uint256",
          "name": "digiId",
          "type": "uint256"
        }
      ],
      "name": "getAadhaarDetails",
      "outputs": [
        {
          "components": [
            {
              "internalType": "uint64",
              "name": "AadhaarNumber",
              "type": "uint64"
            },
            {
              "internalType": "string",
              "name": "name",
              "type": "string"
            },
            {
              "internalType": "uint8",
              "name": "gender",
              "type": "uint8"
            },
            {
              "internalType": "string",
              "name": "dob",
              "type": "string"
            },
            {
              "internalType": "string",
              "name": "addr",
              "type": "string"
            },
            {
              "internalType": "string",
              "name": "guardian",
              "type": "string"
            }
          ],
          "internalType": "struct Aadhaar.AadhaarInfo",
          "name": "",
          "type": "tuple"
        }
      ],
      "payable": false,
      "stateMutability": "nonpayable",
      "type": "function"
    }
  ],
  "bytecode": "0x6080604052600c600055600054600a0a60015560405161001e9061008d565b604051809103906000f08015801561003a573d6000803e3d6000fd5b50600760006101000a81548173ffffffffffffffffffffffffffffffffffffffff021916908373ffffffffffffffffffffffffffffffffffffffff16021790555034801561008757600080fd5b5061009b565b611578806200212783390190565b61207c80620000ab6000396000f3fe608060405234801561001057600080fd5b50600436106100885760003560e01c806365cccc561161005b57806365cccc561461013b578063ce071c3614610159578063d3d08c3314610189578063f69d3d0d146101a757610088565b80631a01cffe1461008d57806335075ff0146100bd5780634c22c119146100ed57806357d1d6031461010b575b600080fd5b6100a760048036036100a29190810190611694565b6101d7565b6040516100b49190611e66565b60405180910390f35b6100d760048036036100d291908101906116bd565b6101ef565b6040516100e49190611e66565b60405180910390f35b6100f5610511565b6040516101029190611d27565b60405180910390f35b610125600480360361012091908101906117be565b61056b565b6040516101329190611e22565b60405180910390f35b610143610a07565b6040516101509190611e66565b60405180910390f35b610173600480360361016e9190810190611810565b610acf565b6040516101809190611e81565b60405180910390f35b610191610c81565b60405161019e9190611e44565b60405180910390f35b6101c160048036036101bc91908101906117be565b611084565b6040516101ce9190611e44565b60405180910390f35b60056020528060005260406000206000915090505481565b600073814a3083ceb549c6d93dae42c9d3944f95bd28ba73ffffffffffffffffffffffffffffffffffffffff163373ffffffffffffffffffffffffffffffffffffffff1614610273576040517f08c379a000000000000000000000000000000000000000000000000000000000815260040161026a90611d82565b60405180910390fd5b6000600560008973ffffffffffffffffffffffffffffffffffffffff1673ffffffffffffffffffffffffffffffffffffffff16815260200190815260200160002054146102f5576040517f08c379a00000000000000000000000000000000000000000000000000000000081526004016102ec90611da2565b60405180910390fd5b6001600560008973ffffffffffffffffffffffffffffffffffffffff1673ffffffffffffffffffffffffffffffffffffffff168152602001908152602001600020819055506000600154836040516020016103509190611d10565b6040516020818303038152906040528051906020012060001c8161037057fe5b069050876002600083815260200190815260200160002060006101000a81548173ffffffffffffffffffffffffffffffffffffffff021916908373ffffffffffffffffffffffffffffffffffffffff1602179055506040518060a0016040528088815260200187815260200186815260200185815260200184815250600460008a73ffffffffffffffffffffffffffffffffffffffff1673ffffffffffffffffffffffffffffffffffffffff16815260200190815260200160002060008201518160000190805190602001906104479291906114d5565b5060208201518160010190805190602001906104649291906114d5565b5060408201518160020190805190602001906104819291906114d5565b50606082015181600301908051906020019061049e9291906114d5565b5060808201518160040190805190602001906104bb9291906114d5565b5090505080600360008a73ffffffffffffffffffffffffffffffffffffffff1673ffffffffffffffffffffffffffffffffffffffff16815260200190815260200160002081905550809150509695505050505050565b600080600560003373ffffffffffffffffffffffffffffffffffffffff1673ffffffffffffffffffffffffffffffffffffffff1681526020019081526020016000205411156105635760019050610568565b600090505b90565b610573611555565b73ee2f4d0e3846e3916bc79d9bfea88ae246d1fd6773ffffffffffffffffffffffffffffffffffffffff163373ffffffffffffffffffffffffffffffffffffffff16148061065f575081600760009054906101000a900473ffffffffffffffffffffffffffffffffffffffff1673ffffffffffffffffffffffffffffffffffffffff166365cccc566040518163ffffffff1660e01b815260040160206040518083038186803b15801561062557600080fd5b505afa158015610639573d6000803e3d6000fd5b505050506040513d601f19601f8201168201806040525061065d91908101906117e7565b145b61069e576040517f08c379a000000000000000000000000000000000000000000000000000000000815260040161069590611d42565b60405180910390fd5b6000600660008481526020019081526020016000206001018054600181600116156101000203166002900490501161070b576040517f08c379a000000000000000000000000000000000000000000000000000000000815260040161070290611de2565b60405180910390fd5b600660008381526020019081526020016000206040518060c00160405290816000820160009054906101000a900467ffffffffffffffff1667ffffffffffffffff1667ffffffffffffffff168152602001600182018054600181600116156101000203166002900480601f0160208091040260200160405190810160405280929190818152602001828054600181600116156101000203166002900480156107f45780601f106107c9576101008083540402835291602001916107f4565b820191906000526020600020905b8154815290600101906020018083116107d757829003601f168201915b505050505081526020016002820160009054906101000a900460ff1660ff1660ff168152602001600382018054600181600116156101000203166002900480601f0160208091040260200160405190810160405280929190818152602001828054600181600116156101000203166002900480156108b35780601f10610888576101008083540402835291602001916108b3565b820191906000526020600020905b81548152906001019060200180831161089657829003601f168201915b50505050508152602001600482018054600181600116156101000203166002900480601f0160208091040260200160405190810160405280929190818152602001828054600181600116156101000203166002900480156109555780601f1061092a57610100808354040283529160200191610955565b820191906000526020600020905b81548152906001019060200180831161093857829003601f168201915b50505050508152602001600582018054600181600116156101000203166002900480601f0160208091040260200160405190810160405280929190818152602001828054600181600116156101000203166002900480156109f75780601f106109cc576101008083540402835291602001916109f7565b820191906000526020600020905b8154815290600101906020018083116109da57829003601f168201915b5050505050815250509050919050565b600080600560003373ffffffffffffffffffffffffffffffffffffffff1673ffffffffffffffffffffffffffffffffffffffff1681526020019081526020016000205411610a8a576040517f08c379a0000000000000000000000000000000000000000000000000000000008152600401610a8190611dc2565b60405180910390fd5b600360003373ffffffffffffffffffffffffffffffffffffffff1673ffffffffffffffffffffffffffffffffffffffff16815260200190815260200160002054905090565b600073ee2f4d0e3846e3916bc79d9bfea88ae246d1fd6773ffffffffffffffffffffffffffffffffffffffff163373ffffffffffffffffffffffffffffffffffffffff1614610b53576040517f08c379a0000000000000000000000000000000000000000000000000000000008152600401610b4a90611d62565b60405180910390fd5b6000610b5d6114c8565b90506040518060c001604052808267ffffffffffffffff1681526020018881526020018560ff16815260200186815260200187815260200184815250600660008a815260200190815260200160002060008201518160000160006101000a81548167ffffffffffffffff021916908367ffffffffffffffff1602179055506020820151816001019080519060200190610bf79291906114d5565b5060408201518160020160006101000a81548160ff021916908360ff1602179055506060820151816003019080519060200190610c359291906114d5565b506080820151816004019080519060200190610c529291906114d5565b5060a0820151816005019080519060200190610c6f9291906114d5565b50905050809150509695505050505050565b610c89611598565b6000600560003373ffffffffffffffffffffffffffffffffffffffff1673ffffffffffffffffffffffffffffffffffffffff1681526020019081526020016000205411610d0b576040517f08c379a0000000000000000000000000000000000000000000000000000000008152600401610d0290611e02565b60405180910390fd5b600460003373ffffffffffffffffffffffffffffffffffffffff1673ffffffffffffffffffffffffffffffffffffffff1681526020019081526020016000206040518060a0016040529081600082018054600181600116156101000203166002900480601f016020809104026020016040519081016040528092919081815260200182805460018160011615610100020316600290048015610dee5780601f10610dc357610100808354040283529160200191610dee565b820191906000526020600020905b815481529060010190602001808311610dd157829003601f168201915b50505050508152602001600182018054600181600116156101000203166002900480601f016020809104026020016040519081016040528092919081815260200182805460018160011615610100020316600290048015610e905780601f10610e6557610100808354040283529160200191610e90565b820191906000526020600020905b815481529060010190602001808311610e7357829003601f168201915b50505050508152602001600282018054600181600116156101000203166002900480601f016020809104026020016040519081016040528092919081815260200182805460018160011615610100020316600290048015610f325780601f10610f0757610100808354040283529160200191610f32565b820191906000526020600020905b815481529060010190602001808311610f1557829003601f168201915b50505050508152602001600382018054600181600116156101000203166002900480601f016020809104026020016040519081016040528092919081815260200182805460018160011615610100020316600290048015610fd45780601f10610fa957610100808354040283529160200191610fd4565b820191906000526020600020905b815481529060010190602001808311610fb757829003601f168201915b50505050508152602001600482018054600181600116156101000203166002900480601f0160208091040260200160405190810160405280929190818152602001828054600181600116156101000203166002900480156110765780601f1061104b57610100808354040283529160200191611076565b820191906000526020600020905b81548152906001019060200180831161105957829003601f168201915b505050505081525050905090565b61108c611598565b600082905060006002600083815260200190815260200160002060009054906101000a900473ffffffffffffffffffffffffffffffffffffffff1690506000600560008373ffffffffffffffffffffffffffffffffffffffff1673ffffffffffffffffffffffffffffffffffffffff168152602001908152602001600020541161114b576040517f08c379a000000000000000000000000000000000000000000000000000000000815260040161114290611dc2565b60405180910390fd5b600460008273ffffffffffffffffffffffffffffffffffffffff1673ffffffffffffffffffffffffffffffffffffffff1681526020019081526020016000206040518060a0016040529081600082018054600181600116156101000203166002900480601f01602080910402602001604051908101604052809291908181526020018280546001816001161561010002031660029004801561122e5780601f106112035761010080835404028352916020019161122e565b820191906000526020600020905b81548152906001019060200180831161121157829003601f168201915b50505050508152602001600182018054600181600116156101000203166002900480601f0160208091040260200160405190810160405280929190818152602001828054600181600116156101000203166002900480156112d05780601f106112a5576101008083540402835291602001916112d0565b820191906000526020600020905b8154815290600101906020018083116112b357829003601f168201915b50505050508152602001600282018054600181600116156101000203166002900480601f0160208091040260200160405190810160405280929190818152602001828054600181600116156101000203166002900480156113725780601f1061134757610100808354040283529160200191611372565b820191906000526020600020905b81548152906001019060200180831161135557829003601f168201915b50505050508152602001600382018054600181600116156101000203166002900480601f0160208091040260200160405190810160405280929190818152602001828054600181600116156101000203166002900480156114145780601f106113e957610100808354040283529160200191611414565b820191906000526020600020905b8154815290600101906020018083116113f757829003601f168201915b50505050508152602001600482018054600181600116156101000203166002900480601f0160208091040260200160405190810160405280929190818152602001828054600181600116156101000203166002900480156114b65780601f1061148b576101008083540402835291602001916114b6565b820191906000526020600020905b81548152906001019060200180831161149957829003601f168201915b50505050508152505092505050919050565b6000641cbe991a14905090565b828054600181600116156101000203166002900490600052602060002090601f016020900481019282601f1061151657805160ff1916838001178555611544565b82800160010185558215611544579182015b82811115611543578251825591602001919060010190611528565b5b50905061155191906115c7565b5090565b6040518060c00160405280600067ffffffffffffffff16815260200160608152602001600060ff1681526020016060815260200160608152602001606081525090565b6040518060a0016040528060608152602001606081526020016060815260200160608152602001606081525090565b6115e991905b808211156115e55760008160009055506001016115cd565b5090565b90565b6000813590506115fb81611ff4565b92915050565b600082601f83011261161257600080fd5b813561162561162082611ec9565b611e9c565b9150808252602083016020830185838301111561164157600080fd5b61164c838284611fa1565b50505092915050565b6000813590506116648161200b565b92915050565b6000815190506116798161200b565b92915050565b60008135905061168e81612022565b92915050565b6000602082840312156116a657600080fd5b60006116b4848285016115ec565b91505092915050565b60008060008060008060c087890312156116d657600080fd5b60006116e489828a016115ec565b965050602087013567ffffffffffffffff81111561170157600080fd5b61170d89828a01611601565b955050604087013567ffffffffffffffff81111561172a57600080fd5b61173689828a01611601565b945050606087013567ffffffffffffffff81111561175357600080fd5b61175f89828a01611601565b935050608087013567ffffffffffffffff81111561177c57600080fd5b61178889828a01611601565b92505060a087013567ffffffffffffffff8111156117a557600080fd5b6117b189828a01611601565b9150509295509295509295565b6000602082840312156117d057600080fd5b60006117de84828501611655565b91505092915050565b6000602082840312156117f957600080fd5b60006118078482850161166a565b91505092915050565b60008060008060008060c0878903121561182957600080fd5b600061183789828a01611655565b965050602087013567ffffffffffffffff81111561185457600080fd5b61186089828a01611601565b955050604087013567ffffffffffffffff81111561187d57600080fd5b61188989828a01611601565b945050606087013567ffffffffffffffff8111156118a657600080fd5b6118b289828a01611601565b93505060806118c389828a0161167f565b92505060a087013567ffffffffffffffff8111156118e057600080fd5b6118ec89828a01611601565b9150509295509295509295565b61190281611f4a565b82525050565b600061191382611f00565b61191d8185611f2d565b935061192d818560208601611fb0565b80840191505092915050565b600061194482611ef5565b61194e8185611f0b565b935061195e818560208601611fb0565b61196781611fe3565b840191505092915050565b600061197f602b83611f1c565b91507f536f72727920796f752068617665206e6f207065726d697373696f6e20746f2060008301527f73656520746869732e2e2e0000000000000000000000000000000000000000006020830152604082019050919050565b60006119e5602183611f1c565b91507f536f72727921207365656d7320796f7520617265206e6f742061646d696e2e2e60008301527f2e000000000000000000000000000000000000000000000000000000000000006020830152604082019050919050565b6000611a4b601583611f1c565b91507f41646d696e206e6f7420617574686f72697365642e00000000000000000000006000830152602082019050919050565b6000611a8b601883611f1c565b91507f5573657220616c726561647920726567697374657265642e00000000000000006000830152602082019050919050565b6000611acb601483611f1c565b91507f55736572206e6f7420726567697374657265642e0000000000000000000000006000830152602082019050919050565b6000611b0b602183611f1c565b91507f536f7272792120446f6e27742068617665206161646861617220636172642e2e60008301527f2e000000000000000000000000000000000000000000000000000000000000006020830152604082019050919050565b6000611b71601783611f1c565b91507f55736572206973206e6f7420726567697374657265642e0000000000000000006000830152602082019050919050565b600060c083016000830151611bbc6000860182611ce3565b5060208301518482036020860152611bd48282611939565b9150506040830151611be96040860182611d01565b5060608301518482036060860152611c018282611939565b91505060808301518482036080860152611c1b8282611939565b91505060a083015184820360a0860152611c358282611939565b9150508091505092915050565b600060a0830160008301518482036000860152611c5f8282611939565b91505060208301518482036020860152611c798282611939565b91505060408301518482036040860152611c938282611939565b91505060608301518482036060860152611cad8282611939565b91505060808301518482036080860152611cc78282611939565b9150508091505092915050565b611cdd81611f76565b82525050565b611cec81611f80565b82525050565b611cfb81611f80565b82525050565b611d0a81611f94565b82525050565b6000611d1c8284611908565b915081905092915050565b6000602082019050611d3c60008301846118f9565b92915050565b60006020820190508181036000830152611d5b81611972565b9050919050565b60006020820190508181036000830152611d7b816119d8565b9050919050565b60006020820190508181036000830152611d9b81611a3e565b9050919050565b60006020820190508181036000830152611dbb81611a7e565b9050919050565b60006020820190508181036000830152611ddb81611abe565b9050919050565b60006020820190508181036000830152611dfb81611afe565b9050919050565b60006020820190508181036000830152611e1b81611b64565b9050919050565b60006020820190508181036000830152611e3c8184611ba4565b905092915050565b60006020820190508181036000830152611e5e8184611c42565b905092915050565b6000602082019050611e7b6000830184611cd4565b92915050565b6000602082019050611e966000830184611cf2565b92915050565b6000604051905081810181811067ffffffffffffffff82111715611ebf57600080fd5b8060405250919050565b600067ffffffffffffffff821115611ee057600080fd5b601f19601f8301169050602081019050919050565b600081519050919050565b600081519050919050565b600082825260208201905092915050565b600082825260208201905092915050565b600081905092915050565b6000611f4382611f56565b9050919050565b60008115159050919050565b600073ffffffffffffffffffffffffffffffffffffffff82169050919050565b6000819050919050565b600067ffffffffffffffff82169050919050565b600060ff82169050919050565b82818337600083830152505050565b60005b83811015611fce578082015181840152602081019050611fb3565b83811115611fdd576000848401525b50505050565b6000601f19601f8301169050919050565b611ffd81611f38565b811461200857600080fd5b50565b61201481611f76565b811461201f57600080fd5b50565b61202b81611f94565b811461203657600080fd5b5056fea365627a7a72315820e4631a29e77b966899a568c8d66a1e62719daf99bfb4f118199f52c2ebb55d7f6c6578706572696d656e74616cf564736f6c634300051000406080604052600c600055600054600a0a60015534801561001e57600080fd5b5061154a8061002e6000396000f3fe608060405234801561001057600080fd5b50600436106100625760003560e01c80631a01cffe1461006757806335075ff0146100975780634c22c119146100c757806365cccc56146100e5578063d3d08c3314610103578063f69d3d0d14610121575b600080fd5b610081600480360361007c9190810190610f46565b610151565b60405161008e9190611387565b60405180910390f35b6100b160048036036100ac9190810190610f6f565b610169565b6040516100be9190611387565b60405180910390f35b6100cf61048b565b6040516100dc91906112ca565b60405180910390f35b6100ed6104e5565b6040516100fa9190611387565b60405180910390f35b61010b6105ad565b6040516101189190611365565b60405180910390f35b61013b60048036036101369190810190611070565b6109b0565b6040516101489190611365565b60405180910390f35b60056020528060005260406000206000915090505481565b600073814a3083ceb549c6d93dae42c9d3944f95bd28ba73ffffffffffffffffffffffffffffffffffffffff163373ffffffffffffffffffffffffffffffffffffffff16146101ed576040517f08c379a00000000000000000000000000000000000000000000000000000000081526004016101e4906112e5565b60405180910390fd5b6000600560008973ffffffffffffffffffffffffffffffffffffffff1673ffffffffffffffffffffffffffffffffffffffff168152602001908152602001600020541461026f576040517f08c379a000000000000000000000000000000000000000000000000000000000815260040161026690611305565b60405180910390fd5b6001600560008973ffffffffffffffffffffffffffffffffffffffff1673ffffffffffffffffffffffffffffffffffffffff168152602001908152602001600020819055506000600154836040516020016102ca91906112b3565b6040516020818303038152906040528051906020012060001c816102ea57fe5b069050876002600083815260200190815260200160002060006101000a81548173ffffffffffffffffffffffffffffffffffffffff021916908373ffffffffffffffffffffffffffffffffffffffff1602179055506040518060a0016040528088815260200187815260200186815260200185815260200184815250600460008a73ffffffffffffffffffffffffffffffffffffffff1673ffffffffffffffffffffffffffffffffffffffff16815260200190815260200160002060008201518160000190805190602001906103c1929190610df4565b5060208201518160010190805190602001906103de929190610df4565b5060408201518160020190805190602001906103fb929190610df4565b506060820151816003019080519060200190610418929190610df4565b506080820151816004019080519060200190610435929190610df4565b5090505080600360008a73ffffffffffffffffffffffffffffffffffffffff1673ffffffffffffffffffffffffffffffffffffffff16815260200190815260200160002081905550809150509695505050505050565b600080600560003373ffffffffffffffffffffffffffffffffffffffff1673ffffffffffffffffffffffffffffffffffffffff1681526020019081526020016000205411156104dd57600190506104e2565b600090505b90565b600080600560003373ffffffffffffffffffffffffffffffffffffffff1673ffffffffffffffffffffffffffffffffffffffff1681526020019081526020016000205411610568576040517f08c379a000000000000000000000000000000000000000000000000000000000815260040161055f90611325565b60405180910390fd5b600360003373ffffffffffffffffffffffffffffffffffffffff1673ffffffffffffffffffffffffffffffffffffffff16815260200190815260200160002054905090565b6105b5610e74565b6000600560003373ffffffffffffffffffffffffffffffffffffffff1673ffffffffffffffffffffffffffffffffffffffff1681526020019081526020016000205411610637576040517f08c379a000000000000000000000000000000000000000000000000000000000815260040161062e90611345565b60405180910390fd5b600460003373ffffffffffffffffffffffffffffffffffffffff1673ffffffffffffffffffffffffffffffffffffffff1681526020019081526020016000206040518060a0016040529081600082018054600181600116156101000203166002900480601f01602080910402602001604051908101604052809291908181526020018280546001816001161561010002031660029004801561071a5780601f106106ef5761010080835404028352916020019161071a565b820191906000526020600020905b8154815290600101906020018083116106fd57829003601f168201915b50505050508152602001600182018054600181600116156101000203166002900480601f0160208091040260200160405190810160405280929190818152602001828054600181600116156101000203166002900480156107bc5780601f10610791576101008083540402835291602001916107bc565b820191906000526020600020905b81548152906001019060200180831161079f57829003601f168201915b50505050508152602001600282018054600181600116156101000203166002900480601f01602080910402602001604051908101604052809291908181526020018280546001816001161561010002031660029004801561085e5780601f106108335761010080835404028352916020019161085e565b820191906000526020600020905b81548152906001019060200180831161084157829003601f168201915b50505050508152602001600382018054600181600116156101000203166002900480601f0160208091040260200160405190810160405280929190818152602001828054600181600116156101000203166002900480156109005780601f106108d557610100808354040283529160200191610900565b820191906000526020600020905b8154815290600101906020018083116108e357829003601f168201915b50505050508152602001600482018054600181600116156101000203166002900480601f0160208091040260200160405190810160405280929190818152602001828054600181600116156101000203166002900480156109a25780601f10610977576101008083540402835291602001916109a2565b820191906000526020600020905b81548152906001019060200180831161098557829003601f168201915b505050505081525050905090565b6109b8610e74565b600082905060006002600083815260200190815260200160002060009054906101000a900473ffffffffffffffffffffffffffffffffffffffff1690506000600560008373ffffffffffffffffffffffffffffffffffffffff1673ffffffffffffffffffffffffffffffffffffffff1681526020019081526020016000205411610a77576040517f08c379a0000000000000000000000000000000000000000000000000000000008152600401610a6e90611325565b60405180910390fd5b600460008273ffffffffffffffffffffffffffffffffffffffff1673ffffffffffffffffffffffffffffffffffffffff1681526020019081526020016000206040518060a0016040529081600082018054600181600116156101000203166002900480601f016020809104026020016040519081016040528092919081815260200182805460018160011615610100020316600290048015610b5a5780601f10610b2f57610100808354040283529160200191610b5a565b820191906000526020600020905b815481529060010190602001808311610b3d57829003601f168201915b50505050508152602001600182018054600181600116156101000203166002900480601f016020809104026020016040519081016040528092919081815260200182805460018160011615610100020316600290048015610bfc5780601f10610bd157610100808354040283529160200191610bfc565b820191906000526020600020905b815481529060010190602001808311610bdf57829003601f168201915b50505050508152602001600282018054600181600116156101000203166002900480601f016020809104026020016040519081016040528092919081815260200182805460018160011615610100020316600290048015610c9e5780601f10610c7357610100808354040283529160200191610c9e565b820191906000526020600020905b815481529060010190602001808311610c8157829003601f168201915b50505050508152602001600382018054600181600116156101000203166002900480601f016020809104026020016040519081016040528092919081815260200182805460018160011615610100020316600290048015610d405780601f10610d1557610100808354040283529160200191610d40565b820191906000526020600020905b815481529060010190602001808311610d2357829003601f168201915b50505050508152602001600482018054600181600116156101000203166002900480601f016020809104026020016040519081016040528092919081815260200182805460018160011615610100020316600290048015610de25780601f10610db757610100808354040283529160200191610de2565b820191906000526020600020905b815481529060010190602001808311610dc557829003601f168201915b50505050508152505092505050919050565b828054600181600116156101000203166002900490600052602060002090601f016020900481019282601f10610e3557805160ff1916838001178555610e63565b82800160010185558215610e63579182015b82811115610e62578251825591602001919060010190610e47565b5b509050610e709190610ea3565b5090565b6040518060a0016040528060608152602001606081526020016060815260200160608152602001606081525090565b610ec591905b80821115610ec1576000816000905550600101610ea9565b5090565b90565b600081359050610ed7816114d9565b92915050565b600082601f830112610eee57600080fd5b8135610f01610efc826113cf565b6113a2565b91508082526020830160208301858383011115610f1d57600080fd5b610f28838284611486565b50505092915050565b600081359050610f40816114f0565b92915050565b600060208284031215610f5857600080fd5b6000610f6684828501610ec8565b91505092915050565b60008060008060008060c08789031215610f8857600080fd5b6000610f9689828a01610ec8565b965050602087013567ffffffffffffffff811115610fb357600080fd5b610fbf89828a01610edd565b955050604087013567ffffffffffffffff811115610fdc57600080fd5b610fe889828a01610edd565b945050606087013567ffffffffffffffff81111561100557600080fd5b61101189828a01610edd565b935050608087013567ffffffffffffffff81111561102e57600080fd5b61103a89828a01610edd565b92505060a087013567ffffffffffffffff81111561105757600080fd5b61106389828a01610edd565b9150509295509295509295565b60006020828403121561108257600080fd5b600061109084828501610f31565b91505092915050565b6110a281611450565b82525050565b60006110b382611406565b6110bd8185611433565b93506110cd818560208601611495565b80840191505092915050565b60006110e4826113fb565b6110ee8185611411565b93506110fe818560208601611495565b611107816114c8565b840191505092915050565b600061111f601583611422565b91507f41646d696e206e6f7420617574686f72697365642e00000000000000000000006000830152602082019050919050565b600061115f601883611422565b91507f5573657220616c726561647920726567697374657265642e00000000000000006000830152602082019050919050565b600061119f601483611422565b91507f55736572206e6f7420726567697374657265642e0000000000000000000000006000830152602082019050919050565b60006111df601783611422565b91507f55736572206973206e6f7420726567697374657265642e0000000000000000006000830152602082019050919050565b600060a083016000830151848203600086015261122f82826110d9565b9150506020830151848203602086015261124982826110d9565b9150506040830151848203604086015261126382826110d9565b9150506060830151848203606086015261127d82826110d9565b9150506080830151848203608086015261129782826110d9565b9150508091505092915050565b6112ad8161147c565b82525050565b60006112bf82846110a8565b915081905092915050565b60006020820190506112df6000830184611099565b92915050565b600060208201905081810360008301526112fe81611112565b9050919050565b6000602082019050818103600083015261131e81611152565b9050919050565b6000602082019050818103600083015261133e81611192565b9050919050565b6000602082019050818103600083015261135e816111d2565b9050919050565b6000602082019050818103600083015261137f8184611212565b905092915050565b600060208201905061139c60008301846112a4565b92915050565b6000604051905081810181811067ffffffffffffffff821117156113c557600080fd5b8060405250919050565b600067ffffffffffffffff8211156113e657600080fd5b601f19601f8301169050602081019050919050565b600081519050919050565b600081519050919050565b600082825260208201905092915050565b600082825260208201905092915050565b600081905092915050565b60006114498261145c565b9050919050565b60008115159050919050565b600073ffffffffffffffffffffffffffffffffffffffff82169050919050565b6000819050919050565b82818337600083830152505050565b60005b838110156114b3578082015181840152602081019050611498565b838111156114c2576000848401525b50505050565b6000601f19601f8301169050919050565b6114e28161143e565b81146114ed57600080fd5b50565b6114f98161147c565b811461150457600080fd5b5056fea365627a7a723158201d2b849496786449a4af69db3dacdb8b86e9a6638dedb7438aa561fe3b0ea7bd6c6578706572696d656e74616cf564736f6c63430005100040",
  "source": "/*Aadhaar.sol*/\npragma solidity ^0.5.12;\npragma experimental ABIEncoderV2;\n\nimport \"./AuthUsers.sol\";\n\ncontract Aadhaar is AuthUsers{\n\n    struct AadhaarInfo {\n        uint64 AadhaarNumber;\n        string name;\n        uint8 gender;\n        string dob;\n        string addr;\n        string guardian;\n    }\n    mapping (uint256 => AadhaarInfo) digiIdToAadhaar;\n    //bool eligibility = false;\n    AuthUsers authuser = new AuthUsers();\n\n    function setAadhaarDetails(uint256 digiId,\n    string memory name,\n    string memory addr,\n    string memory dob,\n    uint8 gender,\n    string memory guardian) public returns (uint64) {\n        require(msg.sender == 0xEe2F4d0E3846E3916bC79d9BfeA88AE246d1fD67, \"Sorry! seems you are not admin...\");\n        uint64 AadhaarNo = AadharCalc();\n        digiIdToAadhaar[digiId] = AadhaarInfo(AadhaarNo, name, gender, dob, addr, guardian);\n        return AadhaarNo;\n    }\n\n    function AadharCalc() private pure returns(uint64) {\n        return 123456789012;\n    }\n\n    function getAadhaarDetails(uint256 digiId) public returns(AadhaarInfo memory){\n        require(msg.sender == 0xEe2F4d0E3846E3916bC79d9BfeA88AE246d1fD67 || authuser.getdigiIdByAddress() == digiId,\n         \"Sorry you have no permission to see this...\");\n        require(bytes(digiIdToAadhaar[digiId].name).length > 0, \"Sorry! Don't have aadhaar card...\");\n        return digiIdToAadhaar[digiId];\n    }\n}",
  "sourcePath": "C:\\Users\\iOSDev747\\Desktop\\Hack\\contracts\\Aadhaar.sol",
  "compiler": {
    "name": "solc",
    "version": "0.5.16+commit.9c3226ce.Emscripten.clang"
  },
  "schemaVersion": "3.0.23",
  "updatedAt": "2020-02-16T05:08:45.807Z",
  "devdoc": {
    "methods": {}
  },
  "userdoc": {
    "methods": {}
  }
}