{
  "contractName": "AuthUsers",
  "abi": [
    {
      "constant": true,
      "inputs": [
        {
          "internalType": "address",
          "name": "",
          "type": "address"
        }
      ],
      "name": "addressToAccount",
      "outputs": [
        {
          "internalType": "uint256",
          "name": "",
          "type": "uint256"
        }
      ],
      "payable": false,
      "stateMutability": "view",
      "type": "function"
    },
    {
      "constant": false,
      "inputs": [
        {
          "internalType": "address",
          "name": "_address",
          "type": "address"
        },
        {
          "internalType": "string",
          "name": "_name",
          "type": "string"
        },
        {
          "internalType": "string",
          "name": "_gender",
          "type": "string"
        },
        {
          "internalType": "string",
          "name": "_dob",
          "type": "string"
        },
        {
          "internalType": "string",
          "name": "_Address",
          "type": "string"
        },
        {
          "internalType": "string",
          "name": "_phoneNumber",
          "type": "string"
        }
      ],
      "name": "registerUser",
      "outputs": [
        {
          "internalType": "uint256",
          "name": "",
          "type": "uint256"
        }
      ],
      "payable": false,
      "stateMutability": "nonpayable",
      "type": "function"
    },
    {
      "constant": true,
      "inputs": [
        {
          "internalType": "uint256",
          "name": "_digiId",
          "type": "uint256"
        }
      ],
      "name": "searchUserBydigiId",
      "outputs": [
        {
          "components": [
            {
              "internalType": "string",
              "name": "name",
              "type": "string"
            },
            {
              "internalType": "string",
              "name": "gender",
              "type": "string"
            },
            {
              "internalType": "string",
              "name": "dob",
              "type": "string"
            },
            {
              "internalType": "string",
              "name": "Address",
              "type": "string"
            },
            {
              "internalType": "string",
              "name": "phoneNumber",
              "type": "string"
            }
          ],
          "internalType": "struct AuthUsers.User",
          "name": "",
          "type": "tuple"
        }
      ],
      "payable": false,
      "stateMutability": "view",
      "type": "function"
    },
    {
      "constant": true,
      "inputs": [],
      "name": "isUser",
      "outputs": [
        {
          "internalType": "bool",
          "name": "",
          "type": "bool"
        }
      ],
      "payable": false,
      "stateMutability": "view",
      "type": "function"
    },
    {
      "constant": true,
      "inputs": [],
      "name": "searchUserByaddress",
      "outputs": [
        {
          "components": [
            {
              "internalType": "string",
              "name": "name",
              "type": "string"
            },
            {
              "internalType": "string",
              "name": "gender",
              "type": "string"
            },
            {
              "internalType": "string",
              "name": "dob",
              "type": "string"
            },
            {
              "internalType": "string",
              "name": "Address",
              "type": "string"
            },
            {
              "internalType": "string",
              "name": "phoneNumber",
              "type": "string"
            }
          ],
          "internalType": "struct AuthUsers.User",
          "name": "",
          "type": "tuple"
        }
      ],
      "payable": false,
      "stateMutability": "view",
      "type": "function"
    },
    {
      "constant": true,
      "inputs": [],
      "name": "getdigiIdByAddress",
      "outputs": [
        {
          "internalType": "uint256",
          "name": "",
          "type": "uint256"
        }
      ],
      "payable": false,
      "stateMutability": "view",
      "type": "function"
    }
  ],
  "bytecode": "0x6080604052600c600055600054600a0a60015534801561001e57600080fd5b5061154a8061002e6000396000f3fe608060405234801561001057600080fd5b50600436106100625760003560e01c80631a01cffe1461006757806335075ff0146100975780634c22c119146100c757806365cccc56146100e5578063d3d08c3314610103578063f69d3d0d14610121575b600080fd5b610081600480360361007c9190810190610f46565b610151565b60405161008e9190611387565b60405180910390f35b6100b160048036036100ac9190810190610f6f565b610169565b6040516100be9190611387565b60405180910390f35b6100cf61048b565b6040516100dc91906112ca565b60405180910390f35b6100ed6104e5565b6040516100fa9190611387565b60405180910390f35b61010b6105ad565b6040516101189190611365565b60405180910390f35b61013b60048036036101369190810190611070565b6109b0565b6040516101489190611365565b60405180910390f35b60056020528060005260406000206000915090505481565b600073576d92b599bb6c4024dacf602daeeeb17923e8d773ffffffffffffffffffffffffffffffffffffffff163373ffffffffffffffffffffffffffffffffffffffff16146101ed576040517f08c379a00000000000000000000000000000000000000000000000000000000081526004016101e4906112e5565b60405180910390fd5b6000600560008973ffffffffffffffffffffffffffffffffffffffff1673ffffffffffffffffffffffffffffffffffffffff168152602001908152602001600020541461026f576040517f08c379a000000000000000000000000000000000000000000000000000000000815260040161026690611305565b60405180910390fd5b6001600560008973ffffffffffffffffffffffffffffffffffffffff1673ffffffffffffffffffffffffffffffffffffffff168152602001908152602001600020819055506000600154836040516020016102ca91906112b3565b6040516020818303038152906040528051906020012060001c816102ea57fe5b069050876002600083815260200190815260200160002060006101000a81548173ffffffffffffffffffffffffffffffffffffffff021916908373ffffffffffffffffffffffffffffffffffffffff1602179055506040518060a0016040528088815260200187815260200186815260200185815260200184815250600460008a73ffffffffffffffffffffffffffffffffffffffff1673ffffffffffffffffffffffffffffffffffffffff16815260200190815260200160002060008201518160000190805190602001906103c1929190610df4565b5060208201518160010190805190602001906103de929190610df4565b5060408201518160020190805190602001906103fb929190610df4565b506060820151816003019080519060200190610418929190610df4565b506080820151816004019080519060200190610435929190610df4565b5090505080600360008a73ffffffffffffffffffffffffffffffffffffffff1673ffffffffffffffffffffffffffffffffffffffff16815260200190815260200160002081905550809150509695505050505050565b600080600560003373ffffffffffffffffffffffffffffffffffffffff1673ffffffffffffffffffffffffffffffffffffffff1681526020019081526020016000205411156104dd57600190506104e2565b600090505b90565b600080600560003373ffffffffffffffffffffffffffffffffffffffff1673ffffffffffffffffffffffffffffffffffffffff1681526020019081526020016000205411610568576040517f08c379a000000000000000000000000000000000000000000000000000000000815260040161055f90611325565b60405180910390fd5b600360003373ffffffffffffffffffffffffffffffffffffffff1673ffffffffffffffffffffffffffffffffffffffff16815260200190815260200160002054905090565b6105b5610e74565b6000600560003373ffffffffffffffffffffffffffffffffffffffff1673ffffffffffffffffffffffffffffffffffffffff1681526020019081526020016000205411610637576040517f08c379a000000000000000000000000000000000000000000000000000000000815260040161062e90611345565b60405180910390fd5b600460003373ffffffffffffffffffffffffffffffffffffffff1673ffffffffffffffffffffffffffffffffffffffff1681526020019081526020016000206040518060a0016040529081600082018054600181600116156101000203166002900480601f01602080910402602001604051908101604052809291908181526020018280546001816001161561010002031660029004801561071a5780601f106106ef5761010080835404028352916020019161071a565b820191906000526020600020905b8154815290600101906020018083116106fd57829003601f168201915b50505050508152602001600182018054600181600116156101000203166002900480601f0160208091040260200160405190810160405280929190818152602001828054600181600116156101000203166002900480156107bc5780601f10610791576101008083540402835291602001916107bc565b820191906000526020600020905b81548152906001019060200180831161079f57829003601f168201915b50505050508152602001600282018054600181600116156101000203166002900480601f01602080910402602001604051908101604052809291908181526020018280546001816001161561010002031660029004801561085e5780601f106108335761010080835404028352916020019161085e565b820191906000526020600020905b81548152906001019060200180831161084157829003601f168201915b50505050508152602001600382018054600181600116156101000203166002900480601f0160208091040260200160405190810160405280929190818152602001828054600181600116156101000203166002900480156109005780601f106108d557610100808354040283529160200191610900565b820191906000526020600020905b8154815290600101906020018083116108e357829003601f168201915b50505050508152602001600482018054600181600116156101000203166002900480601f0160208091040260200160405190810160405280929190818152602001828054600181600116156101000203166002900480156109a25780601f10610977576101008083540402835291602001916109a2565b820191906000526020600020905b81548152906001019060200180831161098557829003601f168201915b505050505081525050905090565b6109b8610e74565b600082905060006002600083815260200190815260200160002060009054906101000a900473ffffffffffffffffffffffffffffffffffffffff1690506000600560008373ffffffffffffffffffffffffffffffffffffffff1673ffffffffffffffffffffffffffffffffffffffff1681526020019081526020016000205411610a77576040517f08c379a0000000000000000000000000000000000000000000000000000000008152600401610a6e90611325565b60405180910390fd5b600460008273ffffffffffffffffffffffffffffffffffffffff1673ffffffffffffffffffffffffffffffffffffffff1681526020019081526020016000206040518060a0016040529081600082018054600181600116156101000203166002900480601f016020809104026020016040519081016040528092919081815260200182805460018160011615610100020316600290048015610b5a5780601f10610b2f57610100808354040283529160200191610b5a565b820191906000526020600020905b815481529060010190602001808311610b3d57829003601f168201915b50505050508152602001600182018054600181600116156101000203166002900480601f016020809104026020016040519081016040528092919081815260200182805460018160011615610100020316600290048015610bfc5780601f10610bd157610100808354040283529160200191610bfc565b820191906000526020600020905b815481529060010190602001808311610bdf57829003601f168201915b50505050508152602001600282018054600181600116156101000203166002900480601f016020809104026020016040519081016040528092919081815260200182805460018160011615610100020316600290048015610c9e5780601f10610c7357610100808354040283529160200191610c9e565b820191906000526020600020905b815481529060010190602001808311610c8157829003601f168201915b50505050508152602001600382018054600181600116156101000203166002900480601f016020809104026020016040519081016040528092919081815260200182805460018160011615610100020316600290048015610d405780601f10610d1557610100808354040283529160200191610d40565b820191906000526020600020905b815481529060010190602001808311610d2357829003601f168201915b50505050508152602001600482018054600181600116156101000203166002900480601f016020809104026020016040519081016040528092919081815260200182805460018160011615610100020316600290048015610de25780601f10610db757610100808354040283529160200191610de2565b820191906000526020600020905b815481529060010190602001808311610dc557829003601f168201915b50505050508152505092505050919050565b828054600181600116156101000203166002900490600052602060002090601f016020900481019282601f10610e3557805160ff1916838001178555610e63565b82800160010185558215610e63579182015b82811115610e62578251825591602001919060010190610e47565b5b509050610e709190610ea3565b5090565b6040518060a0016040528060608152602001606081526020016060815260200160608152602001606081525090565b610ec591905b80821115610ec1576000816000905550600101610ea9565b5090565b90565b600081359050610ed7816114d9565b92915050565b600082601f830112610eee57600080fd5b8135610f01610efc826113cf565b6113a2565b91508082526020830160208301858383011115610f1d57600080fd5b610f28838284611486565b50505092915050565b600081359050610f40816114f0565b92915050565b600060208284031215610f5857600080fd5b6000610f6684828501610ec8565b91505092915050565b60008060008060008060c08789031215610f8857600080fd5b6000610f9689828a01610ec8565b965050602087013567ffffffffffffffff811115610fb357600080fd5b610fbf89828a01610edd565b955050604087013567ffffffffffffffff811115610fdc57600080fd5b610fe889828a01610edd565b945050606087013567ffffffffffffffff81111561100557600080fd5b61101189828a01610edd565b935050608087013567ffffffffffffffff81111561102e57600080fd5b61103a89828a01610edd565b92505060a087013567ffffffffffffffff81111561105757600080fd5b61106389828a01610edd565b9150509295509295509295565b60006020828403121561108257600080fd5b600061109084828501610f31565b91505092915050565b6110a281611450565b82525050565b60006110b382611406565b6110bd8185611433565b93506110cd818560208601611495565b80840191505092915050565b60006110e4826113fb565b6110ee8185611411565b93506110fe818560208601611495565b611107816114c8565b840191505092915050565b600061111f601583611422565b91507f41646d696e206e6f7420617574686f72697365642e00000000000000000000006000830152602082019050919050565b600061115f601883611422565b91507f5573657220616c726561647920726567697374657265642e00000000000000006000830152602082019050919050565b600061119f601483611422565b91507f55736572206e6f7420726567697374657265642e0000000000000000000000006000830152602082019050919050565b60006111df601783611422565b91507f55736572206973206e6f7420726567697374657265642e0000000000000000006000830152602082019050919050565b600060a083016000830151848203600086015261122f82826110d9565b9150506020830151848203602086015261124982826110d9565b9150506040830151848203604086015261126382826110d9565b9150506060830151848203606086015261127d82826110d9565b9150506080830151848203608086015261129782826110d9565b9150508091505092915050565b6112ad8161147c565b82525050565b60006112bf82846110a8565b915081905092915050565b60006020820190506112df6000830184611099565b92915050565b600060208201905081810360008301526112fe81611112565b9050919050565b6000602082019050818103600083015261131e81611152565b9050919050565b6000602082019050818103600083015261133e81611192565b9050919050565b6000602082019050818103600083015261135e816111d2565b9050919050565b6000602082019050818103600083015261137f8184611212565b905092915050565b600060208201905061139c60008301846112a4565b92915050565b6000604051905081810181811067ffffffffffffffff821117156113c557600080fd5b8060405250919050565b600067ffffffffffffffff8211156113e657600080fd5b601f19601f8301169050602081019050919050565b600081519050919050565b600081519050919050565b600082825260208201905092915050565b600082825260208201905092915050565b600081905092915050565b60006114498261145c565b9050919050565b60008115159050919050565b600073ffffffffffffffffffffffffffffffffffffffff82169050919050565b6000819050919050565b82818337600083830152505050565b60005b838110156114b3578082015181840152602081019050611498565b838111156114c2576000848401525b50505050565b6000601f19601f8301169050919050565b6114e28161143e565b81146114ed57600080fd5b50565b6114f98161147c565b811461150457600080fd5b5056fea365627a7a723158203e45ab80606419b2e4648f841dd633d2c2387bf395d76b5fb1cabe0ff9717cc56c6578706572696d656e74616cf564736f6c63430005100040",
  "source": "pragma experimental ABIEncoderV2;\r\npragma solidity ^0.5.16;\r\n\r\ncontract AuthUsers {\r\n    uint256 digits = 12;\r\n    uint256 modulusValue = 10**digits;\r\n\r\n    struct User {\r\n        string name;\r\n        string gender;\r\n        string dob;\r\n        string Address;\r\n        string phoneNumber;\r\n    }\r\n\r\n    mapping(uint256 => address) userToId;\r\n    mapping(address => uint256) addressTodigiId;\r\n    mapping(address => User) userInfo;\r\n    mapping(address => uint256) public addressToAccount;\r\n\r\n    function registerUser(\r\n        address _address,\r\n        string memory _name,\r\n        string memory _gender,\r\n        string memory _dob,\r\n        string memory _Address,\r\n        string memory _phoneNumber\r\n    ) public returns (uint256) { \r\n        require(\r\n            msg.sender == 0x576D92b599Bb6c4024dacf602dAeeeb17923E8d7,\r\n            \"Admin not authorised.\"\r\n        );\r\n        require(addressToAccount[_address] == 0, \"User already registered.\");\r\n\r\n        // Register the new user\r\n        addressToAccount[_address] = 1;\r\n        uint256 _digiId = uint256(keccak256(abi.encodePacked(_phoneNumber))) %\r\n            modulusValue;\r\n        userToId[_digiId] = _address;\r\n        userInfo[_address] = User(_name, _gender, _dob, _Address, _phoneNumber);\r\n        addressTodigiId[_address] = _digiId;\r\n        return _digiId;\r\n    }\r\n\r\n    function searchUserBydigiId(uint256 _digiId)\r\n        public\r\n        view\r\n        returns (User memory)\r\n    {\r\n        uint256 _id = _digiId;\r\n        address _addr = userToId[_id];\r\n        require(addressToAccount[_addr] > 0, \"User not registered.\");\r\n\r\n        return (userInfo[_addr]);\r\n    }\r\n\r\n    function isUser() public view returns (bool) {\r\n        if (addressToAccount[msg.sender] > 0) return true;\r\n        return false;\r\n    }\r\n\r\n    function searchUserByaddress() public view returns (User memory) {\r\n        require(addressToAccount[msg.sender] > 0, \"User is not registered.\");\r\n\r\n        return userInfo[msg.sender];\r\n    }\r\n\r\n    function getdigiIdByAddress() public view returns(uint256) {\r\n        require(addressToAccount[msg.sender] > 0,\"User not registered.\");\r\n        return addressTodigiId[msg.sender];\r\n    }\r\n}\r\n",
  "sourcePath": "C:\\Users\\iOSDev747\\Desktop\\Hack\\contracts\\AuthUsers.sol",
  "compiler": {
    "name": "solc",
    "version": "0.5.16+commit.9c3226ce.Emscripten.clang"
  },
  "schemaVersion": "3.0.23",
  "updatedAt": "2020-02-15T23:31:38.790Z",
  "networkType": "ethereum",
  "devdoc": {
    "methods": {}
  },
  "userdoc": {
    "methods": {}
  }
}