{
  "contractName": "PanCard",
  "abi": [
    {
      "constant": true,
      "inputs": [
        {
          "internalType": "address",
          "name": "",
          "type": "address"
        }
      ],
      "name": "addressToAccount",
      "outputs": [
        {
          "internalType": "uint256",
          "name": "",
          "type": "uint256"
        }
      ],
      "payable": false,
      "stateMutability": "view",
      "type": "function"
    },
    {
      "constant": false,
      "inputs": [
        {
          "internalType": "uint256",
          "name": "digiId",
          "type": "uint256"
        }
      ],
      "name": "getAadhaarDetails",
      "outputs": [
        {
          "components": [
            {
              "internalType": "uint64",
              "name": "AadhaarNumber",
              "type": "uint64"
            },
            {
              "internalType": "string",
              "name": "name",
              "type": "string"
            },
            {
              "internalType": "uint8",
              "name": "gender",
              "type": "uint8"
            },
            {
              "internalType": "string",
              "name": "dob",
              "type": "string"
            },
            {
              "internalType": "string",
              "name": "addr",
              "type": "string"
            },
            {
              "internalType": "string",
              "name": "guardian",
              "type": "string"
            }
          ],
          "internalType": "struct Aadhaar.AadhaarInfo",
          "name": "",
          "type": "tuple"
        }
      ],
      "payable": false,
      "stateMutability": "nonpayable",
      "type": "function"
    },
    {
      "constant": true,
      "inputs": [
        {
          "internalType": "uint64",
          "name": "digiId",
          "type": "uint64"
        }
      ],
      "name": "getTenthDetails",
      "outputs": [
        {
          "components": [
            {
              "internalType": "uint64",
              "name": "RollNo",
              "type": "uint64"
            },
            {
              "internalType": "string",
              "name": "name",
              "type": "string"
            },
            {
              "internalType": "string",
              "name": "dob",
              "type": "string"
            },
            {
              "internalType": "string",
              "name": "guardian",
              "type": "string"
            },
            {
              "internalType": "uint16",
              "name": "percent",
              "type": "uint16"
            },
            {
              "internalType": "bool",
              "name": "pass_status",
              "type": "bool"
            },
            {
              "internalType": "string",
              "name": "board",
              "type": "string"
            }
          ],
          "internalType": "struct TenthMarksheet.TenthInfo",
          "name": "",
          "type": "tuple"
        }
      ],
      "payable": false,
      "stateMutability": "view",
      "type": "function"
    },
    {
      "constant": true,
      "inputs": [],
      "name": "getdigiIdByAddress",
      "outputs": [
        {
          "internalType": "uint256",
          "name": "",
          "type": "uint256"
        }
      ],
      "payable": false,
      "stateMutability": "view",
      "type": "function"
    },
    {
      "constant": true,
      "inputs": [],
      "name": "isUser",
      "outputs": [
        {
          "internalType": "bool",
          "name": "",
          "type": "bool"
        }
      ],
      "payable": false,
      "stateMutability": "view",
      "type": "function"
    },
    {
      "constant": false,
      "inputs": [
        {
          "internalType": "address",
          "name": "_address",
          "type": "address"
        },
        {
          "internalType": "string",
          "name": "_name",
          "type": "string"
        },
        {
          "internalType": "string",
          "name": "_gender",
          "type": "string"
        },
        {
          "internalType": "string",
          "name": "_dob",
          "type": "string"
        },
        {
          "internalType": "string",
          "name": "_Address",
          "type": "string"
        },
        {
          "internalType": "string",
          "name": "_phoneNumber",
          "type": "string"
        }
      ],
      "name": "registerUser",
      "outputs": [
        {
          "internalType": "uint256",
          "name": "",
          "type": "uint256"
        }
      ],
      "payable": false,
      "stateMutability": "nonpayable",
      "type": "function"
    },
    {
      "constant": true,
      "inputs": [],
      "name": "searchUserByaddress",
      "outputs": [
        {
          "components": [
            {
              "internalType": "string",
              "name": "name",
              "type": "string"
            },
            {
              "internalType": "string",
              "name": "gender",
              "type": "string"
            },
            {
              "internalType": "string",
              "name": "dob",
              "type": "string"
            },
            {
              "internalType": "string",
              "name": "Address",
              "type": "string"
            },
            {
              "internalType": "string",
              "name": "phoneNumber",
              "type": "string"
            }
          ],
          "internalType": "struct AuthUsers.User",
          "name": "",
          "type": "tuple"
        }
      ],
      "payable": false,
      "stateMutability": "view",
      "type": "function"
    },
    {
      "constant": true,
      "inputs": [
        {
          "internalType": "uint256",
          "name": "_digiId",
          "type": "uint256"
        }
      ],
      "name": "searchUserBydigiId",
      "outputs": [
        {
          "components": [
            {
              "internalType": "string",
              "name": "name",
              "type": "string"
            },
            {
              "internalType": "string",
              "name": "gender",
              "type": "string"
            },
            {
              "internalType": "string",
              "name": "dob",
              "type": "string"
            },
            {
              "internalType": "string",
              "name": "Address",
              "type": "string"
            },
            {
              "internalType": "string",
              "name": "phoneNumber",
              "type": "string"
            }
          ],
          "internalType": "struct AuthUsers.User",
          "name": "",
          "type": "tuple"
        }
      ],
      "payable": false,
      "stateMutability": "view",
      "type": "function"
    },
    {
      "constant": false,
      "inputs": [
        {
          "internalType": "uint256",
          "name": "digiId",
          "type": "uint256"
        },
        {
          "internalType": "string",
          "name": "name",
          "type": "string"
        },
        {
          "internalType": "string",
          "name": "addr",
          "type": "string"
        },
        {
          "internalType": "string",
          "name": "dob",
          "type": "string"
        },
        {
          "internalType": "uint8",
          "name": "gender",
          "type": "uint8"
        },
        {
          "internalType": "string",
          "name": "guardian",
          "type": "string"
        }
      ],
      "name": "setAadhaarDetails",
      "outputs": [
        {
          "internalType": "uint64",
          "name": "",
          "type": "uint64"
        }
      ],
      "payable": false,
      "stateMutability": "nonpayable",
      "type": "function"
    },
    {
      "constant": false,
      "inputs": [
        {
          "internalType": "uint64",
          "name": "digiId",
          "type": "uint64"
        },
        {
          "internalType": "uint64",
          "name": "RollNo",
          "type": "uint64"
        },
        {
          "internalType": "string",
          "name": "name",
          "type": "string"
        },
        {
          "internalType": "string",
          "name": "dob",
          "type": "string"
        },
        {
          "internalType": "string",
          "name": "guardian",
          "type": "string"
        },
        {
          "internalType": "uint16",
          "name": "percent",
          "type": "uint16"
        },
        {
          "internalType": "bool",
          "name": "pass_status",
          "type": "bool"
        },
        {
          "internalType": "string",
          "name": "board",
          "type": "string"
        }
      ],
      "name": "setTenthDetails",
      "outputs": [],
      "payable": false,
      "stateMutability": "nonpayable",
      "type": "function"
    },
    {
      "constant": false,
      "inputs": [
        {
          "internalType": "uint64",
          "name": "digiId",
          "type": "uint64"
        },
        {
          "internalType": "string",
          "name": "name",
          "type": "string"
        },
        {
          "internalType": "string",
          "name": "DOB",
          "type": "string"
        },
        {
          "internalType": "string",
          "name": "panNumber",
          "type": "string"
        },
        {
          "internalType": "string",
          "name": "daughterOf",
          "type": "string"
        }
      ],
      "name": "setPanCardDetails",
      "outputs": [
        {
          "internalType": "string",
          "name": "",
          "type": "string"
        }
      ],
      "payable": false,
      "stateMutability": "nonpayable",
      "type": "function"
    },
    {
      "constant": false,
      "inputs": [
        {
          "internalType": "uint64",
          "name": "digiId",
          "type": "uint64"
        }
      ],
      "name": "display",
      "outputs": [],
      "payable": false,
      "stateMutability": "nonpayable",
      "type": "function"
    },
    {
      "constant": true,
      "inputs": [
        {
          "internalType": "uint64",
          "name": "digiId",
          "type": "uint64"
        }
      ],
      "name": "getPanCardDetails",
      "outputs": [
        {
          "components": [
            {
              "internalType": "string",
              "name": "panNumber",
              "type": "string"
            },
            {
              "internalType": "string",
              "name": "SO",
              "type": "string"
            },
            {
              "internalType": "string",
              "name": "pic",
              "type": "string"
            },
            {
              "internalType": "string",
              "name": "name",
              "type": "string"
            },
            {
              "internalType": "string",
              "name": "sig",
              "type": "string"
            },
            {
              "internalType": "string",
              "name": "DOB",
              "type": "string"
            }
          ],
          "internalType": "struct PanCard.Pan",
          "name": "",
          "type": "tuple"
        }
      ],
      "payable": false,
      "stateMutability": "view",
      "type": "function"
    }
  ],
  "bytecode": "0x6080604052600c600055600054600a0a600155604051620000209062000185565b604051809103906000f0801580156200003d573d6000803e3d6000fd5b50600760006101000a81548173ffffffffffffffffffffffffffffffffffffffff021916908373ffffffffffffffffffffffffffffffffffffffff1602179055506000600960006101000a81548160ff021916908315150217905550604051620000a79062000193565b604051809103906000f080158015620000c4573d6000803e3d6000fd5b50600960016101000a81548173ffffffffffffffffffffffffffffffffffffffff021916908373ffffffffffffffffffffffffffffffffffffffff1602179055506040516200011390620001a1565b604051809103906000f08015801562000130573d6000803e3d6000fd5b50600a60006101000a81548173ffffffffffffffffffffffffffffffffffffffff021916908373ffffffffffffffffffffffffffffffffffffffff1602179055503480156200017e57600080fd5b50620001af565b6115788062003ce083390190565b61369f806200525883390190565b610cce80620088f783390190565b613b2180620001bf6000396000f3fe608060405234801561001057600080fd5b50600436106100cf5760003560e01c806365cccc561161008c578063ce071c3611610066578063ce071c3614610238578063d3d08c3314610268578063f35cba9314610286578063f69d3d0d146102b6576100cf565b806365cccc56146101e2578063bcc2d29814610200578063c6ded98b1461021c576100cf565b80630deda127146100d45780631a01cffe1461010457806335075ff0146101345780634380274e146101645780634c22c1191461019457806357d1d603146101b2575b600080fd5b6100ee60048036036100e99190810190612dc0565b6102e6565b6040516100fb9190613675565b60405180910390f35b61011e60048036036101199190810190612ab0565b61050a565b60405161012b919061385f565b60405180910390f35b61014e60048036036101499190810190612ad9565b610522565b60405161015b919061385f565b60405180910390f35b61017e60048036036101799190810190612d97565b610844565b60405161018b919061381b565b60405180910390f35b61019c610c06565b6040516101a9919061365a565b60405180910390f35b6101cc60048036036101c79190810190612c5c565b610c60565b6040516101d991906137d7565b60405180910390f35b6101ea6110fc565b6040516101f7919061385f565b60405180910390f35b61021a60048036036102159190810190612d97565b6111c4565b005b61023660048036036102319190810190612e97565b611396565b005b610252600480360361024d9190810190612cae565b611575565b60405161025f9190613895565b60405180910390f35b610270611727565b60405161027d919061383d565b60405180910390f35b6102a0600480360361029b9190810190612d97565b611b2a565b6040516102ad91906137f9565b60405180910390f35b6102d060048036036102cb9190810190612c5c565b6120ed565b6040516102dd919061383d565b60405180910390f35b6060736dea0eb6fd96340dd59e55e40b6ef1f99002711573ffffffffffffffffffffffffffffffffffffffff163373ffffffffffffffffffffffffffffffffffffffff1614801561034a575060011515600d60009054906101000a900460ff161515145b610389576040517f08c379a0000000000000000000000000000000000000000000000000000000008152600401610380906136f7565b60405180910390fd5b6060610393612531565b90506040518060c0016040528085815260200184815260200160405180602001604052806000815250815260200187815260200160405180602001604052806000815250815260200186815250600b60008967ffffffffffffffff1667ffffffffffffffff168152602001908152602001600020600082015181600001908051906020019061042392919061257b565b50602082015181600101908051906020019061044092919061257b565b50604082015181600201908051906020019061045d92919061257b565b50606082015181600301908051906020019061047a92919061257b565b50608082015181600401908051906020019061049792919061257b565b5060a08201518160050190805190602001906104b492919061257b565b5090505086600c826040516104c99190613643565b908152602001604051809103902060006101000a81548167ffffffffffffffff021916908367ffffffffffffffff1602179055508091505095945050505050565b60056020528060005260406000206000915090505481565b600073814a3083ceb549c6d93dae42c9d3944f95bd28ba73ffffffffffffffffffffffffffffffffffffffff163373ffffffffffffffffffffffffffffffffffffffff16146105a6576040517f08c379a000000000000000000000000000000000000000000000000000000000815260040161059d90613717565b60405180910390fd5b6000600560008973ffffffffffffffffffffffffffffffffffffffff1673ffffffffffffffffffffffffffffffffffffffff1681526020019081526020016000205414610628576040517f08c379a000000000000000000000000000000000000000000000000000000000815260040161061f90613737565b60405180910390fd5b6001600560008973ffffffffffffffffffffffffffffffffffffffff1673ffffffffffffffffffffffffffffffffffffffff168152602001908152602001600020819055506000600154836040516020016106839190613643565b6040516020818303038152906040528051906020012060001c816106a357fe5b069050876002600083815260200190815260200160002060006101000a81548173ffffffffffffffffffffffffffffffffffffffff021916908373ffffffffffffffffffffffffffffffffffffffff1602179055506040518060a0016040528088815260200187815260200186815260200185815260200184815250600460008a73ffffffffffffffffffffffffffffffffffffffff1673ffffffffffffffffffffffffffffffffffffffff168152602001908152602001600020600082015181600001908051906020019061077a92919061257b565b50602082015181600101908051906020019061079792919061257b565b5060408201518160020190805190602001906107b492919061257b565b5060608201518160030190805190602001906107d192919061257b565b5060808201518160040190805190602001906107ee92919061257b565b5090505080600360008a73ffffffffffffffffffffffffffffffffffffffff1673ffffffffffffffffffffffffffffffffffffffff16815260200190815260200160002081905550809150509695505050505050565b61084c6125fb565b6000600860008467ffffffffffffffff1667ffffffffffffffff16815260200190815260200160002060000160009054906101000a900467ffffffffffffffff1667ffffffffffffffff1614156108d8576040517f08c379a00000000000000000000000000000000000000000000000000000000081526004016108cf906136b7565b60405180910390fd5b600860008367ffffffffffffffff1667ffffffffffffffff1681526020019081526020016000206040518060e00160405290816000820160009054906101000a900467ffffffffffffffff1667ffffffffffffffff1667ffffffffffffffff168152602001600182018054600181600116156101000203166002900480601f0160208091040260200160405190810160405280929190818152602001828054600181600116156101000203166002900480156109d55780601f106109aa576101008083540402835291602001916109d5565b820191906000526020600020905b8154815290600101906020018083116109b857829003601f168201915b50505050508152602001600282018054600181600116156101000203166002900480601f016020809104026020016040519081016040528092919081815260200182805460018160011615610100020316600290048015610a775780601f10610a4c57610100808354040283529160200191610a77565b820191906000526020600020905b815481529060010190602001808311610a5a57829003601f168201915b50505050508152602001600382018054600181600116156101000203166002900480601f016020809104026020016040519081016040528092919081815260200182805460018160011615610100020316600290048015610b195780601f10610aee57610100808354040283529160200191610b19565b820191906000526020600020905b815481529060010190602001808311610afc57829003601f168201915b505050505081526020016004820160009054906101000a900461ffff1661ffff1661ffff1681526020016004820160029054906101000a900460ff16151515158152602001600582018054600181600116156101000203166002900480601f016020809104026020016040519081016040528092919081815260200182805460018160011615610100020316600290048015610bf65780601f10610bcb57610100808354040283529160200191610bf6565b820191906000526020600020905b815481529060010190602001808311610bd957829003601f168201915b5050505050815250509050919050565b600080600560003373ffffffffffffffffffffffffffffffffffffffff1673ffffffffffffffffffffffffffffffffffffffff168152602001908152602001600020541115610c585760019050610c5d565b600090505b90565b610c68612648565b73ee2f4d0e3846e3916bc79d9bfea88ae246d1fd6773ffffffffffffffffffffffffffffffffffffffff163373ffffffffffffffffffffffffffffffffffffffff161480610d54575081600760009054906101000a900473ffffffffffffffffffffffffffffffffffffffff1673ffffffffffffffffffffffffffffffffffffffff166365cccc566040518163ffffffff1660e01b815260040160206040518083038186803b158015610d1a57600080fd5b505afa158015610d2e573d6000803e3d6000fd5b505050506040513d601f19601f82011682018060405250610d529190810190612c85565b145b610d93576040517f08c379a0000000000000000000000000000000000000000000000000000000008152600401610d8a90613697565b60405180910390fd5b60006006600084815260200190815260200160002060010180546001816001161561010002031660029004905011610e00576040517f08c379a0000000000000000000000000000000000000000000000000000000008152600401610df790613797565b60405180910390fd5b600660008381526020019081526020016000206040518060c00160405290816000820160009054906101000a900467ffffffffffffffff1667ffffffffffffffff1667ffffffffffffffff168152602001600182018054600181600116156101000203166002900480601f016020809104026020016040519081016040528092919081815260200182805460018160011615610100020316600290048015610ee95780601f10610ebe57610100808354040283529160200191610ee9565b820191906000526020600020905b815481529060010190602001808311610ecc57829003601f168201915b505050505081526020016002820160009054906101000a900460ff1660ff1660ff168152602001600382018054600181600116156101000203166002900480601f016020809104026020016040519081016040528092919081815260200182805460018160011615610100020316600290048015610fa85780601f10610f7d57610100808354040283529160200191610fa8565b820191906000526020600020905b815481529060010190602001808311610f8b57829003601f168201915b50505050508152602001600482018054600181600116156101000203166002900480601f01602080910402602001604051908101604052809291908181526020018280546001816001161561010002031660029004801561104a5780601f1061101f5761010080835404028352916020019161104a565b820191906000526020600020905b81548152906001019060200180831161102d57829003601f168201915b50505050508152602001600582018054600181600116156101000203166002900480601f0160208091040260200160405190810160405280929190818152602001828054600181600116156101000203166002900480156110ec5780601f106110c1576101008083540402835291602001916110ec565b820191906000526020600020905b8154815290600101906020018083116110cf57829003601f168201915b5050505050815250509050919050565b600080600560003373ffffffffffffffffffffffffffffffffffffffff1673ffffffffffffffffffffffffffffffffffffffff168152602001908152602001600020541161117f576040517f08c379a000000000000000000000000000000000000000000000000000000000815260040161117690613757565b60405180910390fd5b600360003373ffffffffffffffffffffffffffffffffffffffff1673ffffffffffffffffffffffffffffffffffffffff16815260200190815260200160002054905090565b6000600960019054906101000a900473ffffffffffffffffffffffffffffffffffffffff1673ffffffffffffffffffffffffffffffffffffffff166357d1d603836040518263ffffffff1660e01b8152600401611221919061387a565b600060405180830381600087803b15801561123b57600080fd5b505af115801561124f573d6000803e3d6000fd5b505050506040513d6000823e3d601f19601f820116820180604052506112789190810190612bda565b6000015167ffffffffffffffff161415801561135257506000600a60009054906101000a900473ffffffffffffffffffffffffffffffffffffffff1673ffffffffffffffffffffffffffffffffffffffff16634380274e836040518263ffffffff1660e01b81526004016112ec9190613895565b60006040518083038186803b15801561130457600080fd5b505afa158015611318573d6000803e3d6000fd5b505050506040513d6000823e3d601f19601f820116820180604052506113419190810190612c1b565b6000015167ffffffffffffffff1614155b15611377576001600d60006101000a81548160ff021916908315150217905550611393565b6000600d60006101000a81548160ff0219169083151502179055505b50565b73814a3083ceb549c6d93dae42c9d3944f95bd28ba73ffffffffffffffffffffffffffffffffffffffff163373ffffffffffffffffffffffffffffffffffffffff1614611418576040517f08c379a000000000000000000000000000000000000000000000000000000000815260040161140f906136d7565b60405180910390fd5b6040518060e001604052808867ffffffffffffffff1681526020018781526020018681526020018581526020018461ffff168152602001831515815260200182815250600860008a67ffffffffffffffff1667ffffffffffffffff16815260200190815260200160002060008201518160000160006101000a81548167ffffffffffffffff021916908367ffffffffffffffff16021790555060208201518160010190805190602001906114cd92919061257b565b5060408201518160020190805190602001906114ea92919061257b565b50606082015181600301908051906020019061150792919061257b565b5060808201518160040160006101000a81548161ffff021916908361ffff16021790555060a08201518160040160026101000a81548160ff02191690831515021790555060c082015181600501908051906020019061156792919061257b565b509050505050505050505050565b600073ee2f4d0e3846e3916bc79d9bfea88ae246d1fd6773ffffffffffffffffffffffffffffffffffffffff163373ffffffffffffffffffffffffffffffffffffffff16146115f9576040517f08c379a00000000000000000000000000000000000000000000000000000000081526004016115f0906136d7565b60405180910390fd5b600061160361256e565b90506040518060c001604052808267ffffffffffffffff1681526020018881526020018560ff16815260200186815260200187815260200184815250600660008a815260200190815260200160002060008201518160000160006101000a81548167ffffffffffffffff021916908367ffffffffffffffff160217905550602082015181600101908051906020019061169d92919061257b565b5060408201518160020160006101000a81548160ff021916908360ff16021790555060608201518160030190805190602001906116db92919061257b565b5060808201518160040190805190602001906116f892919061257b565b5060a082015181600501908051906020019061171592919061257b565b50905050809150509695505050505050565b61172f61268b565b6000600560003373ffffffffffffffffffffffffffffffffffffffff1673ffffffffffffffffffffffffffffffffffffffff16815260200190815260200160002054116117b1576040517f08c379a00000000000000000000000000000000000000000000000000000000081526004016117a8906137b7565b60405180910390fd5b600460003373ffffffffffffffffffffffffffffffffffffffff1673ffffffffffffffffffffffffffffffffffffffff1681526020019081526020016000206040518060a0016040529081600082018054600181600116156101000203166002900480601f0160208091040260200160405190810160405280929190818152602001828054600181600116156101000203166002900480156118945780601f1061186957610100808354040283529160200191611894565b820191906000526020600020905b81548152906001019060200180831161187757829003601f168201915b50505050508152602001600182018054600181600116156101000203166002900480601f0160208091040260200160405190810160405280929190818152602001828054600181600116156101000203166002900480156119365780601f1061190b57610100808354040283529160200191611936565b820191906000526020600020905b81548152906001019060200180831161191957829003601f168201915b50505050508152602001600282018054600181600116156101000203166002900480601f0160208091040260200160405190810160405280929190818152602001828054600181600116156101000203166002900480156119d85780601f106119ad576101008083540402835291602001916119d8565b820191906000526020600020905b8154815290600101906020018083116119bb57829003601f168201915b50505050508152602001600382018054600181600116156101000203166002900480601f016020809104026020016040519081016040528092919081815260200182805460018160011615610100020316600290048015611a7a5780601f10611a4f57610100808354040283529160200191611a7a565b820191906000526020600020905b815481529060010190602001808311611a5d57829003601f168201915b50505050508152602001600482018054600181600116156101000203166002900480601f016020809104026020016040519081016040528092919081815260200182805460018160011615610100020316600290048015611b1c5780601f10611af157610100808354040283529160200191611b1c565b820191906000526020600020905b815481529060010190602001808311611aff57829003601f168201915b505050505081525050905090565b611b326126ba565b736dea0eb6fd96340dd59e55e40b6ef1f99002711573ffffffffffffffffffffffffffffffffffffffff163373ffffffffffffffffffffffffffffffffffffffff161480611c2857508167ffffffffffffffff16600760009054906101000a900473ffffffffffffffffffffffffffffffffffffffff1673ffffffffffffffffffffffffffffffffffffffff166365cccc566040518163ffffffff1660e01b815260040160206040518083038186803b158015611bee57600080fd5b505afa158015611c02573d6000803e3d6000fd5b505050506040513d601f19601f82011682018060405250611c269190810190612c85565b145b611c67576040517f08c379a0000000000000000000000000000000000000000000000000000000008152600401611c5e90613697565b60405180910390fd5b6000600b60008467ffffffffffffffff1667ffffffffffffffff16815260200190815260200160002060000180546001816001161561010002031660029004905011611ce8576040517f08c379a0000000000000000000000000000000000000000000000000000000008152600401611cdf90613777565b60405180910390fd5b600b60008367ffffffffffffffff1667ffffffffffffffff1681526020019081526020016000206040518060c0016040529081600082018054600181600116156101000203166002900480601f016020809104026020016040519081016040528092919081815260200182805460018160011615610100020316600290048015611db35780601f10611d8857610100808354040283529160200191611db3565b820191906000526020600020905b815481529060010190602001808311611d9657829003601f168201915b50505050508152602001600182018054600181600116156101000203166002900480601f016020809104026020016040519081016040528092919081815260200182805460018160011615610100020316600290048015611e555780601f10611e2a57610100808354040283529160200191611e55565b820191906000526020600020905b815481529060010190602001808311611e3857829003601f168201915b50505050508152602001600282018054600181600116156101000203166002900480601f016020809104026020016040519081016040528092919081815260200182805460018160011615610100020316600290048015611ef75780601f10611ecc57610100808354040283529160200191611ef7565b820191906000526020600020905b815481529060010190602001808311611eda57829003601f168201915b50505050508152602001600382018054600181600116156101000203166002900480601f016020809104026020016040519081016040528092919081815260200182805460018160011615610100020316600290048015611f995780601f10611f6e57610100808354040283529160200191611f99565b820191906000526020600020905b815481529060010190602001808311611f7c57829003601f168201915b50505050508152602001600482018054600181600116156101000203166002900480601f01602080910402602001604051908101604052809291908181526020018280546001816001161561010002031660029004801561203b5780601f106120105761010080835404028352916020019161203b565b820191906000526020600020905b81548152906001019060200180831161201e57829003601f168201915b50505050508152602001600582018054600181600116156101000203166002900480601f0160208091040260200160405190810160405280929190818152602001828054600181600116156101000203166002900480156120dd5780601f106120b2576101008083540402835291602001916120dd565b820191906000526020600020905b8154815290600101906020018083116120c057829003601f168201915b5050505050815250509050919050565b6120f561268b565b600082905060006002600083815260200190815260200160002060009054906101000a900473ffffffffffffffffffffffffffffffffffffffff1690506000600560008373ffffffffffffffffffffffffffffffffffffffff1673ffffffffffffffffffffffffffffffffffffffff16815260200190815260200160002054116121b4576040517f08c379a00000000000000000000000000000000000000000000000000000000081526004016121ab90613757565b60405180910390fd5b600460008273ffffffffffffffffffffffffffffffffffffffff1673ffffffffffffffffffffffffffffffffffffffff1681526020019081526020016000206040518060a0016040529081600082018054600181600116156101000203166002900480601f0160208091040260200160405190810160405280929190818152602001828054600181600116156101000203166002900480156122975780601f1061226c57610100808354040283529160200191612297565b820191906000526020600020905b81548152906001019060200180831161227a57829003601f168201915b50505050508152602001600182018054600181600116156101000203166002900480601f0160208091040260200160405190810160405280929190818152602001828054600181600116156101000203166002900480156123395780601f1061230e57610100808354040283529160200191612339565b820191906000526020600020905b81548152906001019060200180831161231c57829003601f168201915b50505050508152602001600282018054600181600116156101000203166002900480601f0160208091040260200160405190810160405280929190818152602001828054600181600116156101000203166002900480156123db5780601f106123b0576101008083540402835291602001916123db565b820191906000526020600020905b8154815290600101906020018083116123be57829003601f168201915b50505050508152602001600382018054600181600116156101000203166002900480601f01602080910402602001604051908101604052809291908181526020018280546001816001161561010002031660029004801561247d5780601f106124525761010080835404028352916020019161247d565b820191906000526020600020905b81548152906001019060200180831161246057829003601f168201915b50505050508152602001600482018054600181600116156101000203166002900480601f01602080910402602001604051908101604052809291908181526020018280546001816001161561010002031660029004801561251f5780601f106124f45761010080835404028352916020019161251f565b820191906000526020600020905b81548152906001019060200180831161250257829003601f168201915b50505050508152505092505050919050565b60606040518060400160405280600381526020017f3636360000000000000000000000000000000000000000000000000000000000815250905090565b6000641cbe991a14905090565b828054600181600116156101000203166002900490600052602060002090601f016020900481019282601f106125bc57805160ff19168380011785556125ea565b828001600101855582156125ea579182015b828111156125e95782518255916020019190600101906125ce565b5b5090506125f791906126f0565b5090565b6040518060e00160405280600067ffffffffffffffff168152602001606081526020016060815260200160608152602001600061ffff168152602001600015158152602001606081525090565b6040518060c00160405280600067ffffffffffffffff16815260200160608152602001600060ff1681526020016060815260200160608152602001606081525090565b6040518060a0016040528060608152602001606081526020016060815260200160608152602001606081525090565b6040518060c001604052806060815260200160608152602001606081526020016060815260200160608152602001606081525090565b61271291905b8082111561270e5760008160009055506001016126f6565b5090565b90565b60008135905061272481613a54565b92915050565b60008135905061273981613a6b565b92915050565b60008151905061274e81613a6b565b92915050565b600082601f83011261276557600080fd5b8151612778612773826138dd565b6138b0565b9150808252602083016020830185838301111561279457600080fd5b61279f838284613a10565b50505092915050565b600082601f8301126127b957600080fd5b81356127cc6127c782613909565b6138b0565b915080825260208301602083018583830111156127e857600080fd5b6127f3838284613a01565b50505092915050565b600060c0828403121561280e57600080fd5b61281860c06138b0565b9050600061282884828501612a71565b600083015250602082015167ffffffffffffffff81111561284857600080fd5b61285484828501612754565b602083015250604061286884828501612a9b565b604083015250606082015167ffffffffffffffff81111561288857600080fd5b61289484828501612754565b606083015250608082015167ffffffffffffffff8111156128b457600080fd5b6128c084828501612754565b60808301525060a082015167ffffffffffffffff8111156128e057600080fd5b6128ec84828501612754565b60a08301525092915050565b600060e0828403121561290a57600080fd5b61291460e06138b0565b9050600061292484828501612a71565b600083015250602082015167ffffffffffffffff81111561294457600080fd5b61295084828501612754565b602083015250604082015167ffffffffffffffff81111561297057600080fd5b61297c84828501612754565b604083015250606082015167ffffffffffffffff81111561299c57600080fd5b6129a884828501612754565b60608301525060806129bc84828501612a1d565b60808301525060a06129d08482850161273f565b60a08301525060c082015167ffffffffffffffff8111156129f057600080fd5b6129fc84828501612754565b60c08301525092915050565b600081359050612a1781613a82565b92915050565b600081519050612a2c81613a82565b92915050565b600081359050612a4181613a99565b92915050565b600081519050612a5681613a99565b92915050565b600081359050612a6b81613ab0565b92915050565b600081519050612a8081613ab0565b92915050565b600081359050612a9581613ac7565b92915050565b600081519050612aaa81613ac7565b92915050565b600060208284031215612ac257600080fd5b6000612ad084828501612715565b91505092915050565b60008060008060008060c08789031215612af257600080fd5b6000612b0089828a01612715565b965050602087013567ffffffffffffffff811115612b1d57600080fd5b612b2989828a016127a8565b955050604087013567ffffffffffffffff811115612b4657600080fd5b612b5289828a016127a8565b945050606087013567ffffffffffffffff811115612b6f57600080fd5b612b7b89828a016127a8565b935050608087013567ffffffffffffffff811115612b9857600080fd5b612ba489828a016127a8565b92505060a087013567ffffffffffffffff811115612bc157600080fd5b612bcd89828a016127a8565b9150509295509295509295565b600060208284031215612bec57600080fd5b600082015167ffffffffffffffff811115612c0657600080fd5b612c12848285016127fc565b91505092915050565b600060208284031215612c2d57600080fd5b600082015167ffffffffffffffff811115612c4757600080fd5b612c53848285016128f8565b91505092915050565b600060208284031215612c6e57600080fd5b6000612c7c84828501612a32565b91505092915050565b600060208284031215612c9757600080fd5b6000612ca584828501612a47565b91505092915050565b60008060008060008060c08789031215612cc757600080fd5b6000612cd589828a01612a32565b965050602087013567ffffffffffffffff811115612cf257600080fd5b612cfe89828a016127a8565b955050604087013567ffffffffffffffff811115612d1b57600080fd5b612d2789828a016127a8565b945050606087013567ffffffffffffffff811115612d4457600080fd5b612d5089828a016127a8565b9350506080612d6189828a01612a86565b92505060a087013567ffffffffffffffff811115612d7e57600080fd5b612d8a89828a016127a8565b9150509295509295509295565b600060208284031215612da957600080fd5b6000612db784828501612a5c565b91505092915050565b600080600080600060a08688031215612dd857600080fd5b6000612de688828901612a5c565b955050602086013567ffffffffffffffff811115612e0357600080fd5b612e0f888289016127a8565b945050604086013567ffffffffffffffff811115612e2c57600080fd5b612e38888289016127a8565b935050606086013567ffffffffffffffff811115612e5557600080fd5b612e61888289016127a8565b925050608086013567ffffffffffffffff811115612e7e57600080fd5b612e8a888289016127a8565b9150509295509295909350565b600080600080600080600080610100898b031215612eb457600080fd5b6000612ec28b828c01612a5c565b9850506020612ed38b828c01612a5c565b975050604089013567ffffffffffffffff811115612ef057600080fd5b612efc8b828c016127a8565b965050606089013567ffffffffffffffff811115612f1957600080fd5b612f258b828c016127a8565b955050608089013567ffffffffffffffff811115612f4257600080fd5b612f4e8b828c016127a8565b94505060a0612f5f8b828c01612a08565b93505060c0612f708b828c0161272a565b92505060e089013567ffffffffffffffff811115612f8d57600080fd5b612f998b828c016127a8565b9150509295985092959890939650565b612fb28161398a565b82525050565b612fc18161398a565b82525050565b6000612fd282613940565b612fdc818561395c565b9350612fec818560208601613a10565b612ff581613a43565b840191505092915050565b600061300b82613940565b613015818561396d565b9350613025818560208601613a10565b80840191505092915050565b600061303c82613935565b613046818561394b565b9350613056818560208601613a10565b61305f81613a43565b840191505092915050565b6000613077602b8361395c565b91507f536f72727920796f752068617665206e6f207065726d697373696f6e20746f2060008301527f73656520746869732e2e2e0000000000000000000000000000000000000000006020830152604082019050919050565b60006130dd60138361395c565b91507f5573657220646f65736e277420657869737473000000000000000000000000006000830152602082019050919050565b600061311d60218361395c565b91507f536f72727921207365656d7320796f7520617265206e6f742061646d696e2e2e60008301527f2e000000000000000000000000000000000000000000000000000000000000006020830152604082019050919050565b600061318360148361395c565b91507f596f7520617265206e6f7420656c696769626c650000000000000000000000006000830152602082019050919050565b60006131c360158361395c565b91507f41646d696e206e6f7420617574686f72697365642e00000000000000000000006000830152602082019050919050565b600061320360188361395c565b91507f5573657220616c726561647920726567697374657265642e00000000000000006000830152602082019050919050565b600061324360148361395c565b91507f55736572206e6f7420726567697374657265642e0000000000000000000000006000830152602082019050919050565b6000613283601c8361395c565b91507f446f63756d656e74206973206e6f7420417661696c61626c652e2e2e000000006000830152602082019050919050565b60006132c360218361395c565b91507f536f7272792120446f6e27742068617665206161646861617220636172642e2e60008301527f2e000000000000000000000000000000000000000000000000000000000000006020830152604082019050919050565b600061332960178361395c565b91507f55736572206973206e6f7420726567697374657265642e0000000000000000006000830152602082019050919050565b600060c0830160008301516133746000860182613616565b506020830151848203602086015261338c8282613031565b91505060408301516133a16040860182613634565b50606083015184820360608601526133b98282613031565b915050608083015184820360808601526133d38282613031565b91505060a083015184820360a08601526133ed8282613031565b9150508091505092915050565b600060c08301600083015184820360008601526134178282613031565b915050602083015184820360208601526134318282613031565b9150506040830151848203604086015261344b8282613031565b915050606083015184820360608601526134658282613031565b9150506080830151848203608086015261347f8282613031565b91505060a083015184820360a08601526134998282613031565b9150508091505092915050565b600060e0830160008301516134be6000860182613616565b50602083015184820360208601526134d68282613031565b915050604083015184820360408601526134f08282613031565b9150506060830151848203606086015261350a8282613031565b915050608083015161351f60808601826135e9565b5060a083015161353260a0860182612fa9565b5060c083015184820360c086015261354a8282613031565b9150508091505092915050565b600060a08301600083015184820360008601526135748282613031565b9150506020830151848203602086015261358e8282613031565b915050604083015184820360408601526135a88282613031565b915050606083015184820360608601526135c28282613031565b915050608083015184820360808601526135dc8282613031565b9150508091505092915050565b6135f281613996565b82525050565b613601816139c4565b82525050565b613610816139ef565b82525050565b61361f816139ce565b82525050565b61362e816139ce565b82525050565b61363d816139e2565b82525050565b600061364f8284613000565b915081905092915050565b600060208201905061366f6000830184612fb8565b92915050565b6000602082019050818103600083015261368f8184612fc7565b905092915050565b600060208201905081810360008301526136b08161306a565b9050919050565b600060208201905081810360008301526136d0816130d0565b9050919050565b600060208201905081810360008301526136f081613110565b9050919050565b6000602082019050818103600083015261371081613176565b9050919050565b60006020820190508181036000830152613730816131b6565b9050919050565b60006020820190508181036000830152613750816131f6565b9050919050565b6000602082019050818103600083015261377081613236565b9050919050565b6000602082019050818103600083015261379081613276565b9050919050565b600060208201905081810360008301526137b0816132b6565b9050919050565b600060208201905081810360008301526137d08161331c565b9050919050565b600060208201905081810360008301526137f1818461335c565b905092915050565b6000602082019050818103600083015261381381846133fa565b905092915050565b6000602082019050818103600083015261383581846134a6565b905092915050565b600060208201905081810360008301526138578184613557565b905092915050565b600060208201905061387460008301846135f8565b92915050565b600060208201905061388f6000830184613607565b92915050565b60006020820190506138aa6000830184613625565b92915050565b6000604051905081810181811067ffffffffffffffff821117156138d357600080fd5b8060405250919050565b600067ffffffffffffffff8211156138f457600080fd5b601f19601f8301169050602081019050919050565b600067ffffffffffffffff82111561392057600080fd5b601f19601f8301169050602081019050919050565b600081519050919050565b600081519050919050565b600082825260208201905092915050565b600082825260208201905092915050565b600081905092915050565b6000613983826139a4565b9050919050565b60008115159050919050565b600061ffff82169050919050565b600073ffffffffffffffffffffffffffffffffffffffff82169050919050565b6000819050919050565b600067ffffffffffffffff82169050919050565b600060ff82169050919050565b60006139fa826139ce565b9050919050565b82818337600083830152505050565b60005b83811015613a2e578082015181840152602081019050613a13565b83811115613a3d576000848401525b50505050565b6000601f19601f8301169050919050565b613a5d81613978565b8114613a6857600080fd5b50565b613a748161398a565b8114613a7f57600080fd5b50565b613a8b81613996565b8114613a9657600080fd5b50565b613aa2816139c4565b8114613aad57600080fd5b50565b613ab9816139ce565b8114613ac457600080fd5b50565b613ad0816139e2565b8114613adb57600080fd5b5056fea365627a7a72315820665ed5427a805f002696ba500358067870f28f2ccdbc695b06bc1808718aae056c6578706572696d656e74616cf564736f6c634300051000406080604052600c600055600054600a0a60015534801561001e57600080fd5b5061154a8061002e6000396000f3fe608060405234801561001057600080fd5b50600436106100625760003560e01c80631a01cffe1461006757806335075ff0146100975780634c22c119146100c757806365cccc56146100e5578063d3d08c3314610103578063f69d3d0d14610121575b600080fd5b610081600480360361007c9190810190610f46565b610151565b60405161008e9190611387565b60405180910390f35b6100b160048036036100ac9190810190610f6f565b610169565b6040516100be9190611387565b60405180910390f35b6100cf61048b565b6040516100dc91906112ca565b60405180910390f35b6100ed6104e5565b6040516100fa9190611387565b60405180910390f35b61010b6105ad565b6040516101189190611365565b60405180910390f35b61013b60048036036101369190810190611070565b6109b0565b6040516101489190611365565b60405180910390f35b60056020528060005260406000206000915090505481565b600073814a3083ceb549c6d93dae42c9d3944f95bd28ba73ffffffffffffffffffffffffffffffffffffffff163373ffffffffffffffffffffffffffffffffffffffff16146101ed576040517f08c379a00000000000000000000000000000000000000000000000000000000081526004016101e4906112e5565b60405180910390fd5b6000600560008973ffffffffffffffffffffffffffffffffffffffff1673ffffffffffffffffffffffffffffffffffffffff168152602001908152602001600020541461026f576040517f08c379a000000000000000000000000000000000000000000000000000000000815260040161026690611305565b60405180910390fd5b6001600560008973ffffffffffffffffffffffffffffffffffffffff1673ffffffffffffffffffffffffffffffffffffffff168152602001908152602001600020819055506000600154836040516020016102ca91906112b3565b6040516020818303038152906040528051906020012060001c816102ea57fe5b069050876002600083815260200190815260200160002060006101000a81548173ffffffffffffffffffffffffffffffffffffffff021916908373ffffffffffffffffffffffffffffffffffffffff1602179055506040518060a0016040528088815260200187815260200186815260200185815260200184815250600460008a73ffffffffffffffffffffffffffffffffffffffff1673ffffffffffffffffffffffffffffffffffffffff16815260200190815260200160002060008201518160000190805190602001906103c1929190610df4565b5060208201518160010190805190602001906103de929190610df4565b5060408201518160020190805190602001906103fb929190610df4565b506060820151816003019080519060200190610418929190610df4565b506080820151816004019080519060200190610435929190610df4565b5090505080600360008a73ffffffffffffffffffffffffffffffffffffffff1673ffffffffffffffffffffffffffffffffffffffff16815260200190815260200160002081905550809150509695505050505050565b600080600560003373ffffffffffffffffffffffffffffffffffffffff1673ffffffffffffffffffffffffffffffffffffffff1681526020019081526020016000205411156104dd57600190506104e2565b600090505b90565b600080600560003373ffffffffffffffffffffffffffffffffffffffff1673ffffffffffffffffffffffffffffffffffffffff1681526020019081526020016000205411610568576040517f08c379a000000000000000000000000000000000000000000000000000000000815260040161055f90611325565b60405180910390fd5b600360003373ffffffffffffffffffffffffffffffffffffffff1673ffffffffffffffffffffffffffffffffffffffff16815260200190815260200160002054905090565b6105b5610e74565b6000600560003373ffffffffffffffffffffffffffffffffffffffff1673ffffffffffffffffffffffffffffffffffffffff1681526020019081526020016000205411610637576040517f08c379a000000000000000000000000000000000000000000000000000000000815260040161062e90611345565b60405180910390fd5b600460003373ffffffffffffffffffffffffffffffffffffffff1673ffffffffffffffffffffffffffffffffffffffff1681526020019081526020016000206040518060a0016040529081600082018054600181600116156101000203166002900480601f01602080910402602001604051908101604052809291908181526020018280546001816001161561010002031660029004801561071a5780601f106106ef5761010080835404028352916020019161071a565b820191906000526020600020905b8154815290600101906020018083116106fd57829003601f168201915b50505050508152602001600182018054600181600116156101000203166002900480601f0160208091040260200160405190810160405280929190818152602001828054600181600116156101000203166002900480156107bc5780601f10610791576101008083540402835291602001916107bc565b820191906000526020600020905b81548152906001019060200180831161079f57829003601f168201915b50505050508152602001600282018054600181600116156101000203166002900480601f01602080910402602001604051908101604052809291908181526020018280546001816001161561010002031660029004801561085e5780601f106108335761010080835404028352916020019161085e565b820191906000526020600020905b81548152906001019060200180831161084157829003601f168201915b50505050508152602001600382018054600181600116156101000203166002900480601f0160208091040260200160405190810160405280929190818152602001828054600181600116156101000203166002900480156109005780601f106108d557610100808354040283529160200191610900565b820191906000526020600020905b8154815290600101906020018083116108e357829003601f168201915b50505050508152602001600482018054600181600116156101000203166002900480601f0160208091040260200160405190810160405280929190818152602001828054600181600116156101000203166002900480156109a25780601f10610977576101008083540402835291602001916109a2565b820191906000526020600020905b81548152906001019060200180831161098557829003601f168201915b505050505081525050905090565b6109b8610e74565b600082905060006002600083815260200190815260200160002060009054906101000a900473ffffffffffffffffffffffffffffffffffffffff1690506000600560008373ffffffffffffffffffffffffffffffffffffffff1673ffffffffffffffffffffffffffffffffffffffff1681526020019081526020016000205411610a77576040517f08c379a0000000000000000000000000000000000000000000000000000000008152600401610a6e90611325565b60405180910390fd5b600460008273ffffffffffffffffffffffffffffffffffffffff1673ffffffffffffffffffffffffffffffffffffffff1681526020019081526020016000206040518060a0016040529081600082018054600181600116156101000203166002900480601f016020809104026020016040519081016040528092919081815260200182805460018160011615610100020316600290048015610b5a5780601f10610b2f57610100808354040283529160200191610b5a565b820191906000526020600020905b815481529060010190602001808311610b3d57829003601f168201915b50505050508152602001600182018054600181600116156101000203166002900480601f016020809104026020016040519081016040528092919081815260200182805460018160011615610100020316600290048015610bfc5780601f10610bd157610100808354040283529160200191610bfc565b820191906000526020600020905b815481529060010190602001808311610bdf57829003601f168201915b50505050508152602001600282018054600181600116156101000203166002900480601f016020809104026020016040519081016040528092919081815260200182805460018160011615610100020316600290048015610c9e5780601f10610c7357610100808354040283529160200191610c9e565b820191906000526020600020905b815481529060010190602001808311610c8157829003601f168201915b50505050508152602001600382018054600181600116156101000203166002900480601f016020809104026020016040519081016040528092919081815260200182805460018160011615610100020316600290048015610d405780601f10610d1557610100808354040283529160200191610d40565b820191906000526020600020905b815481529060010190602001808311610d2357829003601f168201915b50505050508152602001600482018054600181600116156101000203166002900480601f016020809104026020016040519081016040528092919081815260200182805460018160011615610100020316600290048015610de25780601f10610db757610100808354040283529160200191610de2565b820191906000526020600020905b815481529060010190602001808311610dc557829003601f168201915b50505050508152505092505050919050565b828054600181600116156101000203166002900490600052602060002090601f016020900481019282601f10610e3557805160ff1916838001178555610e63565b82800160010185558215610e63579182015b82811115610e62578251825591602001919060010190610e47565b5b509050610e709190610ea3565b5090565b6040518060a0016040528060608152602001606081526020016060815260200160608152602001606081525090565b610ec591905b80821115610ec1576000816000905550600101610ea9565b5090565b90565b600081359050610ed7816114d9565b92915050565b600082601f830112610eee57600080fd5b8135610f01610efc826113cf565b6113a2565b91508082526020830160208301858383011115610f1d57600080fd5b610f28838284611486565b50505092915050565b600081359050610f40816114f0565b92915050565b600060208284031215610f5857600080fd5b6000610f6684828501610ec8565b91505092915050565b60008060008060008060c08789031215610f8857600080fd5b6000610f9689828a01610ec8565b965050602087013567ffffffffffffffff811115610fb357600080fd5b610fbf89828a01610edd565b955050604087013567ffffffffffffffff811115610fdc57600080fd5b610fe889828a01610edd565b945050606087013567ffffffffffffffff81111561100557600080fd5b61101189828a01610edd565b935050608087013567ffffffffffffffff81111561102e57600080fd5b61103a89828a01610edd565b92505060a087013567ffffffffffffffff81111561105757600080fd5b61106389828a01610edd565b9150509295509295509295565b60006020828403121561108257600080fd5b600061109084828501610f31565b91505092915050565b6110a281611450565b82525050565b60006110b382611406565b6110bd8185611433565b93506110cd818560208601611495565b80840191505092915050565b60006110e4826113fb565b6110ee8185611411565b93506110fe818560208601611495565b611107816114c8565b840191505092915050565b600061111f601583611422565b91507f41646d696e206e6f7420617574686f72697365642e00000000000000000000006000830152602082019050919050565b600061115f601883611422565b91507f5573657220616c726561647920726567697374657265642e00000000000000006000830152602082019050919050565b600061119f601483611422565b91507f55736572206e6f7420726567697374657265642e0000000000000000000000006000830152602082019050919050565b60006111df601783611422565b91507f55736572206973206e6f7420726567697374657265642e0000000000000000006000830152602082019050919050565b600060a083016000830151848203600086015261122f82826110d9565b9150506020830151848203602086015261124982826110d9565b9150506040830151848203604086015261126382826110d9565b9150506060830151848203606086015261127d82826110d9565b9150506080830151848203608086015261129782826110d9565b9150508091505092915050565b6112ad8161147c565b82525050565b60006112bf82846110a8565b915081905092915050565b60006020820190506112df6000830184611099565b92915050565b600060208201905081810360008301526112fe81611112565b9050919050565b6000602082019050818103600083015261131e81611152565b9050919050565b6000602082019050818103600083015261133e81611192565b9050919050565b6000602082019050818103600083015261135e816111d2565b9050919050565b6000602082019050818103600083015261137f8184611212565b905092915050565b600060208201905061139c60008301846112a4565b92915050565b6000604051905081810181811067ffffffffffffffff821117156113c557600080fd5b8060405250919050565b600067ffffffffffffffff8211156113e657600080fd5b601f19601f8301169050602081019050919050565b600081519050919050565b600081519050919050565b600082825260208201905092915050565b600082825260208201905092915050565b600081905092915050565b60006114498261145c565b9050919050565b60008115159050919050565b600073ffffffffffffffffffffffffffffffffffffffff82169050919050565b6000819050919050565b82818337600083830152505050565b60005b838110156114b3578082015181840152602081019050611498565b838111156114c2576000848401525b50505050565b6000601f19601f8301169050919050565b6114e28161143e565b81146114ed57600080fd5b50565b6114f98161147c565b811461150457600080fd5b5056fea365627a7a723158201d2b849496786449a4af69db3dacdb8b86e9a6638dedb7438aa561fe3b0ea7bd6c6578706572696d656e74616cf564736f6c634300051000406080604052600c600055600054600a0a60015560405161001e9061008d565b604051809103906000f08015801561003a573d6000803e3d6000fd5b50600760006101000a81548173ffffffffffffffffffffffffffffffffffffffff021916908373ffffffffffffffffffffffffffffffffffffffff16021790555034801561008757600080fd5b5061009b565b611578806200212783390190565b61207c80620000ab6000396000f3fe608060405234801561001057600080fd5b50600436106100885760003560e01c806365cccc561161005b57806365cccc561461013b578063ce071c3614610159578063d3d08c3314610189578063f69d3d0d146101a757610088565b80631a01cffe1461008d57806335075ff0146100bd5780634c22c119146100ed57806357d1d6031461010b575b600080fd5b6100a760048036036100a29190810190611694565b6101d7565b6040516100b49190611e66565b60405180910390f35b6100d760048036036100d291908101906116bd565b6101ef565b6040516100e49190611e66565b60405180910390f35b6100f5610511565b6040516101029190611d27565b60405180910390f35b610125600480360361012091908101906117be565b61056b565b6040516101329190611e22565b60405180910390f35b610143610a07565b6040516101509190611e66565b60405180910390f35b610173600480360361016e9190810190611810565b610acf565b6040516101809190611e81565b60405180910390f35b610191610c81565b60405161019e9190611e44565b60405180910390f35b6101c160048036036101bc91908101906117be565b611084565b6040516101ce9190611e44565b60405180910390f35b60056020528060005260406000206000915090505481565b600073814a3083ceb549c6d93dae42c9d3944f95bd28ba73ffffffffffffffffffffffffffffffffffffffff163373ffffffffffffffffffffffffffffffffffffffff1614610273576040517f08c379a000000000000000000000000000000000000000000000000000000000815260040161026a90611d82565b60405180910390fd5b6000600560008973ffffffffffffffffffffffffffffffffffffffff1673ffffffffffffffffffffffffffffffffffffffff16815260200190815260200160002054146102f5576040517f08c379a00000000000000000000000000000000000000000000000000000000081526004016102ec90611da2565b60405180910390fd5b6001600560008973ffffffffffffffffffffffffffffffffffffffff1673ffffffffffffffffffffffffffffffffffffffff168152602001908152602001600020819055506000600154836040516020016103509190611d10565b6040516020818303038152906040528051906020012060001c8161037057fe5b069050876002600083815260200190815260200160002060006101000a81548173ffffffffffffffffffffffffffffffffffffffff021916908373ffffffffffffffffffffffffffffffffffffffff1602179055506040518060a0016040528088815260200187815260200186815260200185815260200184815250600460008a73ffffffffffffffffffffffffffffffffffffffff1673ffffffffffffffffffffffffffffffffffffffff16815260200190815260200160002060008201518160000190805190602001906104479291906114d5565b5060208201518160010190805190602001906104649291906114d5565b5060408201518160020190805190602001906104819291906114d5565b50606082015181600301908051906020019061049e9291906114d5565b5060808201518160040190805190602001906104bb9291906114d5565b5090505080600360008a73ffffffffffffffffffffffffffffffffffffffff1673ffffffffffffffffffffffffffffffffffffffff16815260200190815260200160002081905550809150509695505050505050565b600080600560003373ffffffffffffffffffffffffffffffffffffffff1673ffffffffffffffffffffffffffffffffffffffff1681526020019081526020016000205411156105635760019050610568565b600090505b90565b610573611555565b73ee2f4d0e3846e3916bc79d9bfea88ae246d1fd6773ffffffffffffffffffffffffffffffffffffffff163373ffffffffffffffffffffffffffffffffffffffff16148061065f575081600760009054906101000a900473ffffffffffffffffffffffffffffffffffffffff1673ffffffffffffffffffffffffffffffffffffffff166365cccc566040518163ffffffff1660e01b815260040160206040518083038186803b15801561062557600080fd5b505afa158015610639573d6000803e3d6000fd5b505050506040513d601f19601f8201168201806040525061065d91908101906117e7565b145b61069e576040517f08c379a000000000000000000000000000000000000000000000000000000000815260040161069590611d42565b60405180910390fd5b6000600660008481526020019081526020016000206001018054600181600116156101000203166002900490501161070b576040517f08c379a000000000000000000000000000000000000000000000000000000000815260040161070290611de2565b60405180910390fd5b600660008381526020019081526020016000206040518060c00160405290816000820160009054906101000a900467ffffffffffffffff1667ffffffffffffffff1667ffffffffffffffff168152602001600182018054600181600116156101000203166002900480601f0160208091040260200160405190810160405280929190818152602001828054600181600116156101000203166002900480156107f45780601f106107c9576101008083540402835291602001916107f4565b820191906000526020600020905b8154815290600101906020018083116107d757829003601f168201915b505050505081526020016002820160009054906101000a900460ff1660ff1660ff168152602001600382018054600181600116156101000203166002900480601f0160208091040260200160405190810160405280929190818152602001828054600181600116156101000203166002900480156108b35780601f10610888576101008083540402835291602001916108b3565b820191906000526020600020905b81548152906001019060200180831161089657829003601f168201915b50505050508152602001600482018054600181600116156101000203166002900480601f0160208091040260200160405190810160405280929190818152602001828054600181600116156101000203166002900480156109555780601f1061092a57610100808354040283529160200191610955565b820191906000526020600020905b81548152906001019060200180831161093857829003601f168201915b50505050508152602001600582018054600181600116156101000203166002900480601f0160208091040260200160405190810160405280929190818152602001828054600181600116156101000203166002900480156109f75780601f106109cc576101008083540402835291602001916109f7565b820191906000526020600020905b8154815290600101906020018083116109da57829003601f168201915b5050505050815250509050919050565b600080600560003373ffffffffffffffffffffffffffffffffffffffff1673ffffffffffffffffffffffffffffffffffffffff1681526020019081526020016000205411610a8a576040517f08c379a0000000000000000000000000000000000000000000000000000000008152600401610a8190611dc2565b60405180910390fd5b600360003373ffffffffffffffffffffffffffffffffffffffff1673ffffffffffffffffffffffffffffffffffffffff16815260200190815260200160002054905090565b600073ee2f4d0e3846e3916bc79d9bfea88ae246d1fd6773ffffffffffffffffffffffffffffffffffffffff163373ffffffffffffffffffffffffffffffffffffffff1614610b53576040517f08c379a0000000000000000000000000000000000000000000000000000000008152600401610b4a90611d62565b60405180910390fd5b6000610b5d6114c8565b90506040518060c001604052808267ffffffffffffffff1681526020018881526020018560ff16815260200186815260200187815260200184815250600660008a815260200190815260200160002060008201518160000160006101000a81548167ffffffffffffffff021916908367ffffffffffffffff1602179055506020820151816001019080519060200190610bf79291906114d5565b5060408201518160020160006101000a81548160ff021916908360ff1602179055506060820151816003019080519060200190610c359291906114d5565b506080820151816004019080519060200190610c529291906114d5565b5060a0820151816005019080519060200190610c6f9291906114d5565b50905050809150509695505050505050565b610c89611598565b6000600560003373ffffffffffffffffffffffffffffffffffffffff1673ffffffffffffffffffffffffffffffffffffffff1681526020019081526020016000205411610d0b576040517f08c379a0000000000000000000000000000000000000000000000000000000008152600401610d0290611e02565b60405180910390fd5b600460003373ffffffffffffffffffffffffffffffffffffffff1673ffffffffffffffffffffffffffffffffffffffff1681526020019081526020016000206040518060a0016040529081600082018054600181600116156101000203166002900480601f016020809104026020016040519081016040528092919081815260200182805460018160011615610100020316600290048015610dee5780601f10610dc357610100808354040283529160200191610dee565b820191906000526020600020905b815481529060010190602001808311610dd157829003601f168201915b50505050508152602001600182018054600181600116156101000203166002900480601f016020809104026020016040519081016040528092919081815260200182805460018160011615610100020316600290048015610e905780601f10610e6557610100808354040283529160200191610e90565b820191906000526020600020905b815481529060010190602001808311610e7357829003601f168201915b50505050508152602001600282018054600181600116156101000203166002900480601f016020809104026020016040519081016040528092919081815260200182805460018160011615610100020316600290048015610f325780601f10610f0757610100808354040283529160200191610f32565b820191906000526020600020905b815481529060010190602001808311610f1557829003601f168201915b50505050508152602001600382018054600181600116156101000203166002900480601f016020809104026020016040519081016040528092919081815260200182805460018160011615610100020316600290048015610fd45780601f10610fa957610100808354040283529160200191610fd4565b820191906000526020600020905b815481529060010190602001808311610fb757829003601f168201915b50505050508152602001600482018054600181600116156101000203166002900480601f0160208091040260200160405190810160405280929190818152602001828054600181600116156101000203166002900480156110765780601f1061104b57610100808354040283529160200191611076565b820191906000526020600020905b81548152906001019060200180831161105957829003601f168201915b505050505081525050905090565b61108c611598565b600082905060006002600083815260200190815260200160002060009054906101000a900473ffffffffffffffffffffffffffffffffffffffff1690506000600560008373ffffffffffffffffffffffffffffffffffffffff1673ffffffffffffffffffffffffffffffffffffffff168152602001908152602001600020541161114b576040517f08c379a000000000000000000000000000000000000000000000000000000000815260040161114290611dc2565b60405180910390fd5b600460008273ffffffffffffffffffffffffffffffffffffffff1673ffffffffffffffffffffffffffffffffffffffff1681526020019081526020016000206040518060a0016040529081600082018054600181600116156101000203166002900480601f01602080910402602001604051908101604052809291908181526020018280546001816001161561010002031660029004801561122e5780601f106112035761010080835404028352916020019161122e565b820191906000526020600020905b81548152906001019060200180831161121157829003601f168201915b50505050508152602001600182018054600181600116156101000203166002900480601f0160208091040260200160405190810160405280929190818152602001828054600181600116156101000203166002900480156112d05780601f106112a5576101008083540402835291602001916112d0565b820191906000526020600020905b8154815290600101906020018083116112b357829003601f168201915b50505050508152602001600282018054600181600116156101000203166002900480601f0160208091040260200160405190810160405280929190818152602001828054600181600116156101000203166002900480156113725780601f1061134757610100808354040283529160200191611372565b820191906000526020600020905b81548152906001019060200180831161135557829003601f168201915b50505050508152602001600382018054600181600116156101000203166002900480601f0160208091040260200160405190810160405280929190818152602001828054600181600116156101000203166002900480156114145780601f106113e957610100808354040283529160200191611414565b820191906000526020600020905b8154815290600101906020018083116113f757829003601f168201915b50505050508152602001600482018054600181600116156101000203166002900480601f0160208091040260200160405190810160405280929190818152602001828054600181600116156101000203166002900480156114b65780601f1061148b576101008083540402835291602001916114b6565b820191906000526020600020905b81548152906001019060200180831161149957829003601f168201915b50505050508152505092505050919050565b6000641cbe991a14905090565b828054600181600116156101000203166002900490600052602060002090601f016020900481019282601f1061151657805160ff1916838001178555611544565b82800160010185558215611544579182015b82811115611543578251825591602001919060010190611528565b5b50905061155191906115c7565b5090565b6040518060c00160405280600067ffffffffffffffff16815260200160608152602001600060ff1681526020016060815260200160608152602001606081525090565b6040518060a0016040528060608152602001606081526020016060815260200160608152602001606081525090565b6115e991905b808211156115e55760008160009055506001016115cd565b5090565b90565b6000813590506115fb81611ff4565b92915050565b600082601f83011261161257600080fd5b813561162561162082611ec9565b611e9c565b9150808252602083016020830185838301111561164157600080fd5b61164c838284611fa1565b50505092915050565b6000813590506116648161200b565b92915050565b6000815190506116798161200b565b92915050565b60008135905061168e81612022565b92915050565b6000602082840312156116a657600080fd5b60006116b4848285016115ec565b91505092915050565b60008060008060008060c087890312156116d657600080fd5b60006116e489828a016115ec565b965050602087013567ffffffffffffffff81111561170157600080fd5b61170d89828a01611601565b955050604087013567ffffffffffffffff81111561172a57600080fd5b61173689828a01611601565b945050606087013567ffffffffffffffff81111561175357600080fd5b61175f89828a01611601565b935050608087013567ffffffffffffffff81111561177c57600080fd5b61178889828a01611601565b92505060a087013567ffffffffffffffff8111156117a557600080fd5b6117b189828a01611601565b9150509295509295509295565b6000602082840312156117d057600080fd5b60006117de84828501611655565b91505092915050565b6000602082840312156117f957600080fd5b60006118078482850161166a565b91505092915050565b60008060008060008060c0878903121561182957600080fd5b600061183789828a01611655565b965050602087013567ffffffffffffffff81111561185457600080fd5b61186089828a01611601565b955050604087013567ffffffffffffffff81111561187d57600080fd5b61188989828a01611601565b945050606087013567ffffffffffffffff8111156118a657600080fd5b6118b289828a01611601565b93505060806118c389828a0161167f565b92505060a087013567ffffffffffffffff8111156118e057600080fd5b6118ec89828a01611601565b9150509295509295509295565b61190281611f4a565b82525050565b600061191382611f00565b61191d8185611f2d565b935061192d818560208601611fb0565b80840191505092915050565b600061194482611ef5565b61194e8185611f0b565b935061195e818560208601611fb0565b61196781611fe3565b840191505092915050565b600061197f602b83611f1c565b91507f536f72727920796f752068617665206e6f207065726d697373696f6e20746f2060008301527f73656520746869732e2e2e0000000000000000000000000000000000000000006020830152604082019050919050565b60006119e5602183611f1c565b91507f536f72727921207365656d7320796f7520617265206e6f742061646d696e2e2e60008301527f2e000000000000000000000000000000000000000000000000000000000000006020830152604082019050919050565b6000611a4b601583611f1c565b91507f41646d696e206e6f7420617574686f72697365642e00000000000000000000006000830152602082019050919050565b6000611a8b601883611f1c565b91507f5573657220616c726561647920726567697374657265642e00000000000000006000830152602082019050919050565b6000611acb601483611f1c565b91507f55736572206e6f7420726567697374657265642e0000000000000000000000006000830152602082019050919050565b6000611b0b602183611f1c565b91507f536f7272792120446f6e27742068617665206161646861617220636172642e2e60008301527f2e000000000000000000000000000000000000000000000000000000000000006020830152604082019050919050565b6000611b71601783611f1c565b91507f55736572206973206e6f7420726567697374657265642e0000000000000000006000830152602082019050919050565b600060c083016000830151611bbc6000860182611ce3565b5060208301518482036020860152611bd48282611939565b9150506040830151611be96040860182611d01565b5060608301518482036060860152611c018282611939565b91505060808301518482036080860152611c1b8282611939565b91505060a083015184820360a0860152611c358282611939565b9150508091505092915050565b600060a0830160008301518482036000860152611c5f8282611939565b91505060208301518482036020860152611c798282611939565b91505060408301518482036040860152611c938282611939565b91505060608301518482036060860152611cad8282611939565b91505060808301518482036080860152611cc78282611939565b9150508091505092915050565b611cdd81611f76565b82525050565b611cec81611f80565b82525050565b611cfb81611f80565b82525050565b611d0a81611f94565b82525050565b6000611d1c8284611908565b915081905092915050565b6000602082019050611d3c60008301846118f9565b92915050565b60006020820190508181036000830152611d5b81611972565b9050919050565b60006020820190508181036000830152611d7b816119d8565b9050919050565b60006020820190508181036000830152611d9b81611a3e565b9050919050565b60006020820190508181036000830152611dbb81611a7e565b9050919050565b60006020820190508181036000830152611ddb81611abe565b9050919050565b60006020820190508181036000830152611dfb81611afe565b9050919050565b60006020820190508181036000830152611e1b81611b64565b9050919050565b60006020820190508181036000830152611e3c8184611ba4565b905092915050565b60006020820190508181036000830152611e5e8184611c42565b905092915050565b6000602082019050611e7b6000830184611cd4565b92915050565b6000602082019050611e966000830184611cf2565b92915050565b6000604051905081810181811067ffffffffffffffff82111715611ebf57600080fd5b8060405250919050565b600067ffffffffffffffff821115611ee057600080fd5b601f19601f8301169050602081019050919050565b600081519050919050565b600081519050919050565b600082825260208201905092915050565b600082825260208201905092915050565b600081905092915050565b6000611f4382611f56565b9050919050565b60008115159050919050565b600073ffffffffffffffffffffffffffffffffffffffff82169050919050565b6000819050919050565b600067ffffffffffffffff82169050919050565b600060ff82169050919050565b82818337600083830152505050565b60005b83811015611fce578082015181840152602081019050611fb3565b83811115611fdd576000848401525b50505050565b6000601f19601f8301169050919050565b611ffd81611f38565b811461200857600080fd5b50565b61201481611f76565b811461201f57600080fd5b50565b61202b81611f94565b811461203657600080fd5b5056fea365627a7a72315820e4631a29e77b966899a568c8d66a1e62719daf99bfb4f118199f52c2ebb55d7f6c6578706572696d656e74616cf564736f6c634300051000406080604052600c600055600054600a0a60015534801561001e57600080fd5b5061154a8061002e6000396000f3fe608060405234801561001057600080fd5b50600436106100625760003560e01c80631a01cffe1461006757806335075ff0146100975780634c22c119146100c757806365cccc56146100e5578063d3d08c3314610103578063f69d3d0d14610121575b600080fd5b610081600480360361007c9190810190610f46565b610151565b60405161008e9190611387565b60405180910390f35b6100b160048036036100ac9190810190610f6f565b610169565b6040516100be9190611387565b60405180910390f35b6100cf61048b565b6040516100dc91906112ca565b60405180910390f35b6100ed6104e5565b6040516100fa9190611387565b60405180910390f35b61010b6105ad565b6040516101189190611365565b60405180910390f35b61013b60048036036101369190810190611070565b6109b0565b6040516101489190611365565b60405180910390f35b60056020528060005260406000206000915090505481565b600073814a3083ceb549c6d93dae42c9d3944f95bd28ba73ffffffffffffffffffffffffffffffffffffffff163373ffffffffffffffffffffffffffffffffffffffff16146101ed576040517f08c379a00000000000000000000000000000000000000000000000000000000081526004016101e4906112e5565b60405180910390fd5b6000600560008973ffffffffffffffffffffffffffffffffffffffff1673ffffffffffffffffffffffffffffffffffffffff168152602001908152602001600020541461026f576040517f08c379a000000000000000000000000000000000000000000000000000000000815260040161026690611305565b60405180910390fd5b6001600560008973ffffffffffffffffffffffffffffffffffffffff1673ffffffffffffffffffffffffffffffffffffffff168152602001908152602001600020819055506000600154836040516020016102ca91906112b3565b6040516020818303038152906040528051906020012060001c816102ea57fe5b069050876002600083815260200190815260200160002060006101000a81548173ffffffffffffffffffffffffffffffffffffffff021916908373ffffffffffffffffffffffffffffffffffffffff1602179055506040518060a0016040528088815260200187815260200186815260200185815260200184815250600460008a73ffffffffffffffffffffffffffffffffffffffff1673ffffffffffffffffffffffffffffffffffffffff16815260200190815260200160002060008201518160000190805190602001906103c1929190610df4565b5060208201518160010190805190602001906103de929190610df4565b5060408201518160020190805190602001906103fb929190610df4565b506060820151816003019080519060200190610418929190610df4565b506080820151816004019080519060200190610435929190610df4565b5090505080600360008a73ffffffffffffffffffffffffffffffffffffffff1673ffffffffffffffffffffffffffffffffffffffff16815260200190815260200160002081905550809150509695505050505050565b600080600560003373ffffffffffffffffffffffffffffffffffffffff1673ffffffffffffffffffffffffffffffffffffffff1681526020019081526020016000205411156104dd57600190506104e2565b600090505b90565b600080600560003373ffffffffffffffffffffffffffffffffffffffff1673ffffffffffffffffffffffffffffffffffffffff1681526020019081526020016000205411610568576040517f08c379a000000000000000000000000000000000000000000000000000000000815260040161055f90611325565b60405180910390fd5b600360003373ffffffffffffffffffffffffffffffffffffffff1673ffffffffffffffffffffffffffffffffffffffff16815260200190815260200160002054905090565b6105b5610e74565b6000600560003373ffffffffffffffffffffffffffffffffffffffff1673ffffffffffffffffffffffffffffffffffffffff1681526020019081526020016000205411610637576040517f08c379a000000000000000000000000000000000000000000000000000000000815260040161062e90611345565b60405180910390fd5b600460003373ffffffffffffffffffffffffffffffffffffffff1673ffffffffffffffffffffffffffffffffffffffff1681526020019081526020016000206040518060a0016040529081600082018054600181600116156101000203166002900480601f01602080910402602001604051908101604052809291908181526020018280546001816001161561010002031660029004801561071a5780601f106106ef5761010080835404028352916020019161071a565b820191906000526020600020905b8154815290600101906020018083116106fd57829003601f168201915b50505050508152602001600182018054600181600116156101000203166002900480601f0160208091040260200160405190810160405280929190818152602001828054600181600116156101000203166002900480156107bc5780601f10610791576101008083540402835291602001916107bc565b820191906000526020600020905b81548152906001019060200180831161079f57829003601f168201915b50505050508152602001600282018054600181600116156101000203166002900480601f01602080910402602001604051908101604052809291908181526020018280546001816001161561010002031660029004801561085e5780601f106108335761010080835404028352916020019161085e565b820191906000526020600020905b81548152906001019060200180831161084157829003601f168201915b50505050508152602001600382018054600181600116156101000203166002900480601f0160208091040260200160405190810160405280929190818152602001828054600181600116156101000203166002900480156109005780601f106108d557610100808354040283529160200191610900565b820191906000526020600020905b8154815290600101906020018083116108e357829003601f168201915b50505050508152602001600482018054600181600116156101000203166002900480601f0160208091040260200160405190810160405280929190818152602001828054600181600116156101000203166002900480156109a25780601f10610977576101008083540402835291602001916109a2565b820191906000526020600020905b81548152906001019060200180831161098557829003601f168201915b505050505081525050905090565b6109b8610e74565b600082905060006002600083815260200190815260200160002060009054906101000a900473ffffffffffffffffffffffffffffffffffffffff1690506000600560008373ffffffffffffffffffffffffffffffffffffffff1673ffffffffffffffffffffffffffffffffffffffff1681526020019081526020016000205411610a77576040517f08c379a0000000000000000000000000000000000000000000000000000000008152600401610a6e90611325565b60405180910390fd5b600460008273ffffffffffffffffffffffffffffffffffffffff1673ffffffffffffffffffffffffffffffffffffffff1681526020019081526020016000206040518060a0016040529081600082018054600181600116156101000203166002900480601f016020809104026020016040519081016040528092919081815260200182805460018160011615610100020316600290048015610b5a5780601f10610b2f57610100808354040283529160200191610b5a565b820191906000526020600020905b815481529060010190602001808311610b3d57829003601f168201915b50505050508152602001600182018054600181600116156101000203166002900480601f016020809104026020016040519081016040528092919081815260200182805460018160011615610100020316600290048015610bfc5780601f10610bd157610100808354040283529160200191610bfc565b820191906000526020600020905b815481529060010190602001808311610bdf57829003601f168201915b50505050508152602001600282018054600181600116156101000203166002900480601f016020809104026020016040519081016040528092919081815260200182805460018160011615610100020316600290048015610c9e5780601f10610c7357610100808354040283529160200191610c9e565b820191906000526020600020905b815481529060010190602001808311610c8157829003601f168201915b50505050508152602001600382018054600181600116156101000203166002900480601f016020809104026020016040519081016040528092919081815260200182805460018160011615610100020316600290048015610d405780601f10610d1557610100808354040283529160200191610d40565b820191906000526020600020905b815481529060010190602001808311610d2357829003601f168201915b50505050508152602001600482018054600181600116156101000203166002900480601f016020809104026020016040519081016040528092919081815260200182805460018160011615610100020316600290048015610de25780601f10610db757610100808354040283529160200191610de2565b820191906000526020600020905b815481529060010190602001808311610dc557829003601f168201915b50505050508152505092505050919050565b828054600181600116156101000203166002900490600052602060002090601f016020900481019282601f10610e3557805160ff1916838001178555610e63565b82800160010185558215610e63579182015b82811115610e62578251825591602001919060010190610e47565b5b509050610e709190610ea3565b5090565b6040518060a0016040528060608152602001606081526020016060815260200160608152602001606081525090565b610ec591905b80821115610ec1576000816000905550600101610ea9565b5090565b90565b600081359050610ed7816114d9565b92915050565b600082601f830112610eee57600080fd5b8135610f01610efc826113cf565b6113a2565b91508082526020830160208301858383011115610f1d57600080fd5b610f28838284611486565b50505092915050565b600081359050610f40816114f0565b92915050565b600060208284031215610f5857600080fd5b6000610f6684828501610ec8565b91505092915050565b60008060008060008060c08789031215610f8857600080fd5b6000610f9689828a01610ec8565b965050602087013567ffffffffffffffff811115610fb357600080fd5b610fbf89828a01610edd565b955050604087013567ffffffffffffffff811115610fdc57600080fd5b610fe889828a01610edd565b945050606087013567ffffffffffffffff81111561100557600080fd5b61101189828a01610edd565b935050608087013567ffffffffffffffff81111561102e57600080fd5b61103a89828a01610edd565b92505060a087013567ffffffffffffffff81111561105757600080fd5b61106389828a01610edd565b9150509295509295509295565b60006020828403121561108257600080fd5b600061109084828501610f31565b91505092915050565b6110a281611450565b82525050565b60006110b382611406565b6110bd8185611433565b93506110cd818560208601611495565b80840191505092915050565b60006110e4826113fb565b6110ee8185611411565b93506110fe818560208601611495565b611107816114c8565b840191505092915050565b600061111f601583611422565b91507f41646d696e206e6f7420617574686f72697365642e00000000000000000000006000830152602082019050919050565b600061115f601883611422565b91507f5573657220616c726561647920726567697374657265642e00000000000000006000830152602082019050919050565b600061119f601483611422565b91507f55736572206e6f7420726567697374657265642e0000000000000000000000006000830152602082019050919050565b60006111df601783611422565b91507f55736572206973206e6f7420726567697374657265642e0000000000000000006000830152602082019050919050565b600060a083016000830151848203600086015261122f82826110d9565b9150506020830151848203602086015261124982826110d9565b9150506040830151848203604086015261126382826110d9565b9150506060830151848203606086015261127d82826110d9565b9150506080830151848203608086015261129782826110d9565b9150508091505092915050565b6112ad8161147c565b82525050565b60006112bf82846110a8565b915081905092915050565b60006020820190506112df6000830184611099565b92915050565b600060208201905081810360008301526112fe81611112565b9050919050565b6000602082019050818103600083015261131e81611152565b9050919050565b6000602082019050818103600083015261133e81611192565b9050919050565b6000602082019050818103600083015261135e816111d2565b9050919050565b6000602082019050818103600083015261137f8184611212565b905092915050565b600060208201905061139c60008301846112a4565b92915050565b6000604051905081810181811067ffffffffffffffff821117156113c557600080fd5b8060405250919050565b600067ffffffffffffffff8211156113e657600080fd5b601f19601f8301169050602081019050919050565b600081519050919050565b600081519050919050565b600082825260208201905092915050565b600082825260208201905092915050565b600081905092915050565b60006114498261145c565b9050919050565b60008115159050919050565b600073ffffffffffffffffffffffffffffffffffffffff82169050919050565b6000819050919050565b82818337600083830152505050565b60005b838110156114b3578082015181840152602081019050611498565b838111156114c2576000848401525b50505050565b6000601f19601f8301169050919050565b6114e28161143e565b81146114ed57600080fd5b50565b6114f98161147c565b811461150457600080fd5b5056fea365627a7a723158201d2b849496786449a4af69db3dacdb8b86e9a6638dedb7438aa561fe3b0ea7bd6c6578706572696d656e74616cf564736f6c6343000510004060806040526000600160006101000a81548160ff02191690831515021790555034801561002b57600080fd5b50610c938061003b6000396000f3fe608060405234801561001057600080fd5b50600436106100365760003560e01c80634380274e1461003b578063c6ded98b1461006b575b600080fd5b610055600480360361005091908101906107aa565b610087565b6040516100629190610ae2565b60405180910390f35b610085600480360361008091908101906107d3565b610447565b005b61008f610625565b60008060008467ffffffffffffffff1667ffffffffffffffff16815260200190815260200160002060000160009054906101000a900467ffffffffffffffff1667ffffffffffffffff16141561011a576040517f08c379a000000000000000000000000000000000000000000000000000000000815260040161011190610aa2565b60405180910390fd5b6000808367ffffffffffffffff1667ffffffffffffffff1681526020019081526020016000206040518060e00160405290816000820160009054906101000a900467ffffffffffffffff1667ffffffffffffffff1667ffffffffffffffff168152602001600182018054600181600116156101000203166002900480601f0160208091040260200160405190810160405280929190818152602001828054600181600116156101000203166002900480156102165780601f106101eb57610100808354040283529160200191610216565b820191906000526020600020905b8154815290600101906020018083116101f957829003601f168201915b50505050508152602001600282018054600181600116156101000203166002900480601f0160208091040260200160405190810160405280929190818152602001828054600181600116156101000203166002900480156102b85780601f1061028d576101008083540402835291602001916102b8565b820191906000526020600020905b81548152906001019060200180831161029b57829003601f168201915b50505050508152602001600382018054600181600116156101000203166002900480601f01602080910402602001604051908101604052809291908181526020018280546001816001161561010002031660029004801561035a5780601f1061032f5761010080835404028352916020019161035a565b820191906000526020600020905b81548152906001019060200180831161033d57829003601f168201915b505050505081526020016004820160009054906101000a900461ffff1661ffff1661ffff1681526020016004820160029054906101000a900460ff16151515158152602001600582018054600181600116156101000203166002900480601f0160208091040260200160405190810160405280929190818152602001828054600181600116156101000203166002900480156104375780601f1061040c57610100808354040283529160200191610437565b820191906000526020600020905b81548152906001019060200180831161041a57829003601f168201915b5050505050815250509050919050565b73814a3083ceb549c6d93dae42c9d3944f95bd28ba73ffffffffffffffffffffffffffffffffffffffff163373ffffffffffffffffffffffffffffffffffffffff16146104c9576040517f08c379a00000000000000000000000000000000000000000000000000000000081526004016104c090610ac2565b60405180910390fd5b6040518060e001604052808867ffffffffffffffff1681526020018781526020018681526020018581526020018461ffff1681526020018315158152602001828152506000808a67ffffffffffffffff1667ffffffffffffffff16815260200190815260200160002060008201518160000160006101000a81548167ffffffffffffffff021916908367ffffffffffffffff160217905550602082015181600101908051906020019061057d929190610672565b50604082015181600201908051906020019061059a929190610672565b5060608201518160030190805190602001906105b7929190610672565b5060808201518160040160006101000a81548161ffff021916908361ffff16021790555060a08201518160040160026101000a81548160ff02191690831515021790555060c0820151816005019080519060200190610617929190610672565b509050505050505050505050565b6040518060e00160405280600067ffffffffffffffff168152602001606081526020016060815260200160608152602001600061ffff168152602001600015158152602001606081525090565b828054600181600116156101000203166002900490600052602060002090601f016020900481019282601f106106b357805160ff19168380011785556106e1565b828001600101855582156106e1579182015b828111156106e05782518255916020019190600101906106c5565b5b5090506106ee91906106f2565b5090565b61071491905b808211156107105760008160009055506001016106f8565b5090565b90565b60008135905061072681610c0b565b92915050565b600082601f83011261073d57600080fd5b813561075061074b82610b31565b610b04565b9150808252602083016020830185838301111561076c57600080fd5b610777838284610bb8565b50505092915050565b60008135905061078f81610c22565b92915050565b6000813590506107a481610c39565b92915050565b6000602082840312156107bc57600080fd5b60006107ca84828501610795565b91505092915050565b600080600080600080600080610100898b0312156107f057600080fd5b60006107fe8b828c01610795565b985050602061080f8b828c01610795565b975050604089013567ffffffffffffffff81111561082c57600080fd5b6108388b828c0161072c565b965050606089013567ffffffffffffffff81111561085557600080fd5b6108618b828c0161072c565b955050608089013567ffffffffffffffff81111561087e57600080fd5b61088a8b828c0161072c565b94505060a061089b8b828c01610780565b93505060c06108ac8b828c01610717565b92505060e089013567ffffffffffffffff8111156108c957600080fd5b6108d58b828c0161072c565b9150509295985092959890939650565b6108ee81610b8a565b82525050565b60006108ff82610b5d565b6109098185610b68565b9350610919818560208601610bc7565b61092281610bfa565b840191505092915050565b600061093a601383610b79565b91507f5573657220646f65736e277420657869737473000000000000000000000000006000830152602082019050919050565b600061097a602183610b79565b91507f536f72727921207365656d7320796f7520617265206e6f742061646d696e2e2e60008301527f2e000000000000000000000000000000000000000000000000000000000000006020830152604082019050919050565b600060e0830160008301516109eb6000860182610a93565b5060208301518482036020860152610a0382826108f4565b91505060408301518482036040860152610a1d82826108f4565b91505060608301518482036060860152610a3782826108f4565b9150506080830151610a4c6080860182610a84565b5060a0830151610a5f60a08601826108e5565b5060c083015184820360c0860152610a7782826108f4565b9150508091505092915050565b610a8d81610b96565b82525050565b610a9c81610ba4565b82525050565b60006020820190508181036000830152610abb8161092d565b9050919050565b60006020820190508181036000830152610adb8161096d565b9050919050565b60006020820190508181036000830152610afc81846109d3565b905092915050565b6000604051905081810181811067ffffffffffffffff82111715610b2757600080fd5b8060405250919050565b600067ffffffffffffffff821115610b4857600080fd5b601f19601f8301169050602081019050919050565b600081519050919050565b600082825260208201905092915050565b600082825260208201905092915050565b60008115159050919050565b600061ffff82169050919050565b600067ffffffffffffffff82169050919050565b82818337600083830152505050565b60005b83811015610be5578082015181840152602081019050610bca565b83811115610bf4576000848401525b50505050565b6000601f19601f8301169050919050565b610c1481610b8a565b8114610c1f57600080fd5b50565b610c2b81610b96565b8114610c3657600080fd5b50565b610c4281610ba4565b8114610c4d57600080fd5b5056fea365627a7a723158201ccf170a4ce70f236db8e80e81244abdb507fa1e376e7d4c237d0f51b41e77786c6578706572696d656e74616cf564736f6c63430005100040",
  "source": "pragma solidity ^0.5.12;\npragma experimental ABIEncoderV2;\n\nimport \"./Aadhaar.sol\";\n//import \"./PanCard.sol\";\nimport \"./TenthMarksheet.sol\";\nimport \"./AuthUsers.sol\";\n \ncontract PanCard is AuthUsers, Aadhaar, TenthMarksheet {\n\n    Aadhaar aadhaar = new Aadhaar();\n    //panCard pancard = new panCard();\n    TenthMarksheet tenth = new TenthMarksheet();\n\n    struct Pan {\n        string panNumber;\n        string SO;\n        string pic;\n        string name;\n        string sig;\n        string DOB;\n    }\n    mapping (uint64 => Pan) digiIdToPan;\n    mapping (string => uint64) PanNumToDigiId;\n\n    bool eligibility;\n    function setPanCardDetails(\n        uint64 digiId,\n        string memory name,\n        string memory DOB,\n        string memory panNumber,\n        string memory daughterOf) public returns(string memory) {\n        require(msg.sender == 0x6deA0eB6Fd96340DD59E55e40B6ef1f990027115 && eligibility == true,\n         \"You are not eligible\");\n        string memory Number = calcPan();\n        digiIdToPan[digiId] = Pan(panNumber, daughterOf, \"\", name, \"\", DOB);\n        PanNumToDigiId[Number] = digiId;\n        return Number;\n    }\n\n    function display(uint64 digiId) public {\n        if(aadhaar.getAadhaarDetails(digiId).AadhaarNumber != 0 && tenth.getTenthDetails(digiId).RollNo != 0)\n        {\n            eligibility = true;\n        }\n        else\n        {\n            eligibility = false;\n        }\n    }\n\n    function calcPan() private pure returns(string memory) {\n        return \"666\";\n    }\n\n    function getPanCardDetails(uint64 digiId) public view returns(Pan memory) {\n        require(msg.sender == 0x6deA0eB6Fd96340DD59E55e40B6ef1f990027115 || authuser.getdigiIdByAddress() == digiId,\n         \"Sorry you have no permission to see this...\");\n        require(bytes(digiIdToPan[digiId].panNumber).length > 0,\"Document is not Available...\");\n        return digiIdToPan[digiId];\n    }\n}",
  "sourcePath": "C:\\Users\\iOSDev747\\Desktop\\Hack\\contracts\\PanCard.sol",
  "compiler": {
    "name": "solc",
    "version": "0.5.16+commit.9c3226ce.Emscripten.clang"
  },
  "schemaVersion": "3.0.23",
  "updatedAt": "2020-02-16T05:08:45.825Z",
  "devdoc": {
    "methods": {}
  },
  "userdoc": {
    "methods": {}
  }
}