{
  "contractName": "TenthMarksheet",
  "abi": [
    {
      "constant": false,
      "inputs": [
        {
          "internalType": "uint64",
          "name": "digiId",
          "type": "uint64"
        },
        {
          "internalType": "uint64",
          "name": "RollNo",
          "type": "uint64"
        },
        {
          "internalType": "string",
          "name": "name",
          "type": "string"
        },
        {
          "internalType": "string",
          "name": "dob",
          "type": "string"
        },
        {
          "internalType": "string",
          "name": "guardian",
          "type": "string"
        },
        {
          "internalType": "uint16",
          "name": "percent",
          "type": "uint16"
        },
        {
          "internalType": "bool",
          "name": "pass_status",
          "type": "bool"
        },
        {
          "internalType": "string",
          "name": "board",
          "type": "string"
        }
      ],
      "name": "setTenthDetails",
      "outputs": [],
      "payable": false,
      "stateMutability": "nonpayable",
      "type": "function"
    },
    {
      "constant": true,
      "inputs": [
        {
          "internalType": "uint64",
          "name": "digiId",
          "type": "uint64"
        }
      ],
      "name": "getTenthDetails",
      "outputs": [
        {
          "components": [
            {
              "internalType": "uint64",
              "name": "RollNo",
              "type": "uint64"
            },
            {
              "internalType": "string",
              "name": "name",
              "type": "string"
            },
            {
              "internalType": "string",
              "name": "dob",
              "type": "string"
            },
            {
              "internalType": "string",
              "name": "guardian",
              "type": "string"
            },
            {
              "internalType": "uint16",
              "name": "percent",
              "type": "uint16"
            },
            {
              "internalType": "bool",
              "name": "pass_status",
              "type": "bool"
            },
            {
              "internalType": "string",
              "name": "board",
              "type": "string"
            }
          ],
          "internalType": "struct TenthMarksheet.TenthInfo",
          "name": "",
          "type": "tuple"
        }
      ],
      "payable": false,
      "stateMutability": "view",
      "type": "function"
    }
  ],
  "bytecode": "0x60806040526000600160006101000a81548160ff02191690831515021790555034801561002b57600080fd5b50610c938061003b6000396000f3fe608060405234801561001057600080fd5b50600436106100365760003560e01c80634380274e1461003b578063c6ded98b1461006b575b600080fd5b610055600480360361005091908101906107aa565b610087565b6040516100629190610ae2565b60405180910390f35b610085600480360361008091908101906107d3565b610447565b005b61008f610625565b60008060008467ffffffffffffffff1667ffffffffffffffff16815260200190815260200160002060000160009054906101000a900467ffffffffffffffff1667ffffffffffffffff16141561011a576040517f08c379a000000000000000000000000000000000000000000000000000000000815260040161011190610aa2565b60405180910390fd5b6000808367ffffffffffffffff1667ffffffffffffffff1681526020019081526020016000206040518060e00160405290816000820160009054906101000a900467ffffffffffffffff1667ffffffffffffffff1667ffffffffffffffff168152602001600182018054600181600116156101000203166002900480601f0160208091040260200160405190810160405280929190818152602001828054600181600116156101000203166002900480156102165780601f106101eb57610100808354040283529160200191610216565b820191906000526020600020905b8154815290600101906020018083116101f957829003601f168201915b50505050508152602001600282018054600181600116156101000203166002900480601f0160208091040260200160405190810160405280929190818152602001828054600181600116156101000203166002900480156102b85780601f1061028d576101008083540402835291602001916102b8565b820191906000526020600020905b81548152906001019060200180831161029b57829003601f168201915b50505050508152602001600382018054600181600116156101000203166002900480601f01602080910402602001604051908101604052809291908181526020018280546001816001161561010002031660029004801561035a5780601f1061032f5761010080835404028352916020019161035a565b820191906000526020600020905b81548152906001019060200180831161033d57829003601f168201915b505050505081526020016004820160009054906101000a900461ffff1661ffff1661ffff1681526020016004820160029054906101000a900460ff16151515158152602001600582018054600181600116156101000203166002900480601f0160208091040260200160405190810160405280929190818152602001828054600181600116156101000203166002900480156104375780601f1061040c57610100808354040283529160200191610437565b820191906000526020600020905b81548152906001019060200180831161041a57829003601f168201915b5050505050815250509050919050565b73fa967729e8fd4ae366d762e78e2f251b2f8f7a0573ffffffffffffffffffffffffffffffffffffffff163373ffffffffffffffffffffffffffffffffffffffff16146104c9576040517f08c379a00000000000000000000000000000000000000000000000000000000081526004016104c090610ac2565b60405180910390fd5b6040518060e001604052808867ffffffffffffffff1681526020018781526020018681526020018581526020018461ffff1681526020018315158152602001828152506000808a67ffffffffffffffff1667ffffffffffffffff16815260200190815260200160002060008201518160000160006101000a81548167ffffffffffffffff021916908367ffffffffffffffff160217905550602082015181600101908051906020019061057d929190610672565b50604082015181600201908051906020019061059a929190610672565b5060608201518160030190805190602001906105b7929190610672565b5060808201518160040160006101000a81548161ffff021916908361ffff16021790555060a08201518160040160026101000a81548160ff02191690831515021790555060c0820151816005019080519060200190610617929190610672565b509050505050505050505050565b6040518060e00160405280600067ffffffffffffffff168152602001606081526020016060815260200160608152602001600061ffff168152602001600015158152602001606081525090565b828054600181600116156101000203166002900490600052602060002090601f016020900481019282601f106106b357805160ff19168380011785556106e1565b828001600101855582156106e1579182015b828111156106e05782518255916020019190600101906106c5565b5b5090506106ee91906106f2565b5090565b61071491905b808211156107105760008160009055506001016106f8565b5090565b90565b60008135905061072681610c0b565b92915050565b600082601f83011261073d57600080fd5b813561075061074b82610b31565b610b04565b9150808252602083016020830185838301111561076c57600080fd5b610777838284610bb8565b50505092915050565b60008135905061078f81610c22565b92915050565b6000813590506107a481610c39565b92915050565b6000602082840312156107bc57600080fd5b60006107ca84828501610795565b91505092915050565b600080600080600080600080610100898b0312156107f057600080fd5b60006107fe8b828c01610795565b985050602061080f8b828c01610795565b975050604089013567ffffffffffffffff81111561082c57600080fd5b6108388b828c0161072c565b965050606089013567ffffffffffffffff81111561085557600080fd5b6108618b828c0161072c565b955050608089013567ffffffffffffffff81111561087e57600080fd5b61088a8b828c0161072c565b94505060a061089b8b828c01610780565b93505060c06108ac8b828c01610717565b92505060e089013567ffffffffffffffff8111156108c957600080fd5b6108d58b828c0161072c565b9150509295985092959890939650565b6108ee81610b8a565b82525050565b60006108ff82610b5d565b6109098185610b68565b9350610919818560208601610bc7565b61092281610bfa565b840191505092915050565b600061093a601383610b79565b91507f5573657220646f65736e277420657869737473000000000000000000000000006000830152602082019050919050565b600061097a602183610b79565b91507f536f72727921207365656d7320796f7520617265206e6f742061646d696e2e2e60008301527f2e000000000000000000000000000000000000000000000000000000000000006020830152604082019050919050565b600060e0830160008301516109eb6000860182610a93565b5060208301518482036020860152610a0382826108f4565b91505060408301518482036040860152610a1d82826108f4565b91505060608301518482036060860152610a3782826108f4565b9150506080830151610a4c6080860182610a84565b5060a0830151610a5f60a08601826108e5565b5060c083015184820360c0860152610a7782826108f4565b9150508091505092915050565b610a8d81610b96565b82525050565b610a9c81610ba4565b82525050565b60006020820190508181036000830152610abb8161092d565b9050919050565b60006020820190508181036000830152610adb8161096d565b9050919050565b60006020820190508181036000830152610afc81846109d3565b905092915050565b6000604051905081810181811067ffffffffffffffff82111715610b2757600080fd5b8060405250919050565b600067ffffffffffffffff821115610b4857600080fd5b601f19601f8301169050602081019050919050565b600081519050919050565b600082825260208201905092915050565b600082825260208201905092915050565b60008115159050919050565b600061ffff82169050919050565b600067ffffffffffffffff82169050919050565b82818337600083830152505050565b60005b83811015610be5578082015181840152602081019050610bca565b83811115610bf4576000848401525b50505050565b6000601f19601f8301169050919050565b610c1481610b8a565b8114610c1f57600080fd5b50565b610c2b81610b96565b8114610c3657600080fd5b50565b610c4281610ba4565b8114610c4d57600080fd5b5056fea365627a7a723158203be20ea30b86784d6e6d735766500519d4288307cfe5211f27f767b4429597426c6578706572696d656e74616cf564736f6c63430005100040",
  "source": "/*TenthMarksheet.sol*/\n \npragma solidity ^0.5.12;\npragma experimental ABIEncoderV2;\n \ncontract TenthMarksheet{\n\n    struct TenthInfo {\n        uint64 RollNo;\n        string name;\n        string dob;\n        string guardian;\n        uint16 percent;//divide by 10 to get actual answer; executed on user side to save ether.\n        bool pass_status;\n        string board;\n    }\n    mapping(uint64 => TenthInfo) digiIdToTenth;\n    bool eligibility = false;\n \n    function setTenthDetails(uint64 digiId,\n    uint64 RollNo,\n    string memory name,\n    string memory dob,\n    string memory guardian,\n    uint16 percent,\n    bool pass_status,\n    string memory board) public {\n        require(msg.sender == 0xfa967729e8Fd4ae366d762e78e2f251B2f8f7a05, \"Sorry! seems you are not admin...\");\n        digiIdToTenth[digiId] = TenthInfo(RollNo, name, dob,\n                                guardian, percent, pass_status, board);\n    }\n \n    function getTenthDetails(uint64 digiId) public view returns(TenthInfo memory) {\n        require(digiIdToTenth[digiId].RollNo != 0, \"User doesn't exists\");\n            return digiIdToTenth[digiId];\n    }\n \n}",
  "sourcePath": "C:\\Users\\iOSDev747\\Desktop\\Hack\\contracts\\TenthMarksheet.sol",
  "compiler": {
    "name": "solc",
    "version": "0.5.16+commit.9c3226ce.Emscripten.clang"
  },
  "schemaVersion": "3.0.23",
  "updatedAt": "2020-02-16T01:18:09.880Z",
  "networkType": "ethereum",
  "devdoc": {
    "methods": {}
  },
  "userdoc": {
    "methods": {}
  }
}